:0400000033EF02F0E8
:100008004982FACF3BF0FBCF3CF0E9CF3DF0EACF95
:100018003EF0E1CF3FF0E2CF40F0D9CF41F0DACF68
:1000280042F0F3CF43F0F4CF44F0F6CF45F0F7CFEA
:1000380046F0F8CF47F0F5CF48F0BAA640D0BA96C8
:10004800C6ECD8F001013C4B3D2B0F0E01013C19C9
:1000580001013D11D8A403D0010E0101846F1E0EC9
:1000680001013C1901013D11D8A411D00001E8514A
:10007800D8A40DD0000E01013D6F000E3C6F000E9C
:100088000301F06F010EEF6F010E0001E86F1F0E04
:1000980001013C1901013D11D8A411D00001E80566
:1000A800D8A40DD0000E01013D6F000E3C6F000E6C
:1000B8000301F06F010EEF6F000E0001E86FF2A46C
:1000C80009D0F294010E0101986F22ECA9F0050104
:1000D800DE4BDF2BA4A21ED0A492A382010E010145
:1000E8005A6FF7C0D0F0F8C0D1F0F9C0D2F0BC50C8
:1000F800BDCF39F03A6A39C03AF0396A39102D6EF5
:100108003A502E6E67ECD6F02DC0F7F02EC0F8F0FE
:100118002FC0F9F0B7A047D0B790B680010E010103
:10012800786FA1C16CF6A2C16DF6A3C16EF60F017E
:100138004A514BCF39F03A6A39C03AF0396A391026
:100148002D6E3A502E6E67ECD6F02DC0A1F12EC060
:10015800A2F12FC0A3F1D0C02DF0D1C02EF0D2C093
:100168002FF0550E306ED00E316EC40E326E24EC68
:10017800BAF02DC01EF22EC01FF22FC020F2F7C019
:100188002DF0F8C02EF0F9C02FF0550E306ED00EBD
:10019800316EC40E326E24ECBAF02DC0FAF02EC0C7
:1001A800FBF02FC0FCF0B7A22AD0B792B682010E9E
:1001B80001019B6FA7C175F6A8C176F6A9C177F6AC
:1001C800785079CF39F03A6A39C03AF0396A39103B
:1001D8002D6E3A502E6E67ECD6F02DC0A7F12EC0CA
:1001E800A8F12FC0A9F1D0C078F2D1C079F2D2C05D
:1001F8007AF2F7C0FDF0F8C0FEF0F9C0FFF0B7A43E
:1002080046D0B794B684010E01014C6F9EC145F6E5
:100218009FC146F6A0C147F6755076CF39F03A6AC5
:1002280039C03AF0396A39102D6E3A502E6E67ECA3
:10023800D6F02DC09EF12EC09FF12FC0A0F1D0C0E6
:100248002DF0D1C02EF0D2C02FF0550E306ED00E4A
:10025800316E440E326E24ECBAF02DC00CF22EC072
:100268000DF22FC00EF2F7C02DF0F8C02EF0F9C035
:100278002FF0550E306ED00E316E440E326E24ECD7
:10028800BAF02DC0F4F02EC0F5F02FC0F6F09EA005
:100298001CD09E900201924B932B0301F34BF42B3D
:1002A8000301F14BF22B0301E74BE82B0301F54B5C
:1002B800F62B0301FB4BFC2B0301F74BF82B030137
:1002C800F94BFA2B010E0101866FB7A81BD0B7981E
:1002D80030C132F131C133F170503A6E396A6F5022
:1002E80039240101306F000E3A200101316F36C107
:1002F800A0F237C1A1F292C236F193C237F1010ED2
:100308000001EC6FB7AA20D0B79A22C124F123C10B
:1003180025F10F0148513A6E396A0F0147513924C6
:100328000101226F0F01000E3A200101236F34C131
:100338009EF235C19FF2E7C334F1E8C335F1000EF0
:100348000201856F010E846FB7AE20D0B79E44C1FD
:1003580048F145C149F10F0142513A6E396A0F011E
:10036800415139240101446F0F01000E3A20010167
:10037800456F38C1A2F239C1A3F2F9C338F1FAC303
:1003880039F1000E0201AF6F010EAE6FB7A61DD096
:10039800B79642C146F143C147F173503A6E396A84
:1003A800725039240101426F000E3A200101436F57
:1003B8003AC1A4F23BC1A5F2FBC33AF1FCC33BF13D
:1003C800000E0201AD6F010EAC6FA4AA2AD00F0176
:1003D80022A304D00F0122990F0122890101770578
:1003E800D8A41ED00F011D51396E3A6A0001F3518D
:1003F800020D000EF324D96E050EF420DA6E39C012
:10040800DEFF3AC0DDFF200E0501001905010111CC
:10041800D8A406D00A0E0001F36102D00001F32B24
:10042800A49A48C0F5FF47C0F8FF46C0F7FF45C08B
:10043800F6FF44C0F4FF43C0F3FF42C0DAFF41C0F7
:10044800D9FF40C0E2FF3FC0E1FF3EC0EAFF3DC028
:10045800E9FF3CC0FBFF3BC0FAFF4992110043EFA4
:02046800CEF0D4
:10FB8A0000010000000A00000064000000E8030011
:10FB9A000010270000A086010040420F00809698BE
:10FBAA000000E1F50500CA9A3B00803FCDCC3DD765
:10FBBA00233C12833AB7D138C62737388635C0D6A0
:10FBCA0033CC2B32708930E7DB2EE53C1E42A20D86
:10FBDA0000803F00204100C842007A44401C465041
:10FBEA00C34724744997184BBCBE4C6B6E4E031521
:10FBFA005079AD60F34971F44A489595C7C1DC451F
:10FC0A00DC6DC3B333403401489DB04500DA42008D
:10FC1A00803F5646442052554E2054494D45204572
:10FC2A0052524F5220434F554E544552004545506B
:10FC3A00524F4D204C41535420544852454520457B
:10FC4A0052524F52004D4F544F5220534C4950205C
:10FC5A00434F554E54455200524F544F5220534C25
:10FC6A00495020434F554E54455200454550524F36
:10FC7A004D204552524F522054494D450050495447
:10FC8A00434820454550524F4D20464C4147004578
:10FC9A004550524F4D204552524F5220464C4147F3
:10FCAA000056464420494F204552524F5220464C56
:10FCBA004147005254303120527633204B4156414D
:10FCCA004E4F4F52005646445F53484F52545F437B
:10FCDA004952435549540057494E4420312054450E
:10FCEA004D5020464C41470057494E44203220543B
:10FCFA00454D5020464C41470047454E204545500A
:10FD0A00524F4D20464C4147004552524F522049CE
:10FD1A004E20535452494E470044432042555320E3
:10FD2A00564F4C54414745004D4F544F5220534C67
:10FD3A0049502052504D00524F544F5220534C4973
:10FD4A00502052504D00592D504F57455220464190
:10FD5A0043544F520057494E44203220494E53547F
:10FD6A00414E540044432042555320435552524574
:10FD7A004E540054555242494E452053544154451D
:10FD8A000047454E455241544F522052504D00565D
:10FD9A0046445F434F4D4D555F45525200545552AC
:10FDAA0042494E455F55535F4F53005646442042E1
:10FDBA004F54544F4D204354005646445F52554EBB
:10FDCA005F54494D45005646445F4552524F525F73
:10FDDA00494F0052414D50205550204C4F4F500032
:10FDEA004C4153542035204552524F520057494EE8
:10FDFA00445F494E5354414E5400494E4954414C74
:10FE0A002044454C415900504841534520414E47F2
:10FE1A004C450054454D50455241545552450054A5
:10FE2A00555242494E452052504D004D414E554182
:10FE3A004C5F53544F500054555242494E45204945
:10FE4A00440057494E4420322041564700545552E7
:10FE5A0042494E455F4F4C004D4F544F525F534CF1
:10FE6A00495000524F544F525F534C495000545519
:10FE7A005242494E455F4E52004D45415552455FEB
:10FE8A004552520056464420544F50204354004491
:10FE9A00435F4558545F4C4F570057535F4D494E87
:10FEAA005F4D415800564F4C545F484947480043FC
:10FEBA00555252454E545F4800504F5745525F4D78
:10FECA00494E004C4F474943204F54500050484137
:10FEDA0053455F53455100564644204552524F52AE
:10FEEA0000434F4E544143544F520042204355520F
:10FEFA0052454E5400522043555252454E540059D1
:10FF0A002043555252454E5400504F5745525F4D6B
:10FF1A004158004652455155454E43590053657262
:10FF2A0069616C204E6F0050495443485F46420055
:10FF3A0053544F5050494E470057494E442041565A
:10FF4A0047004552524F52204E4F004E4F5F455286
:10FF5A00524F5200564F4C545F4C4F570052554E19
:10FF6A004E494E47004443425F4C5F480056464460
:10FF7A00204F5450005354415254555000286E7526
:10FF8A006C6C290047454E5F4642005646445F4F17
:10FF9A00430052414D5055500047454E5F4F530064
:10FFAA004220564F4C54005220564F4C5400592070
:10FFBA00564F4C540025342E3031660025342E30ED
:10FFCA0032660056464420487A0025342E306600B0
:10FFDA00444154450046524551004B56415200593E
:10FFEA002D4B57004B56410025640025730025759B
:06FFFA00000A000D0000EA
:020000040001F9
:10000000030E0001DF190001E011D8B4D3EC98F021
:10001000F80E0001B16FFF0E0001B26FDFC0B3F048
:10002000E0C0B4F0A0EC86F02C0E6FECD8F0F50E2A
:100030000001B16FFF0E0001B26FBD0E0001B36F82
:10004000FC0E0001B46FA0EC86F02C0E6FECD8F023
:10005000C60E0001B16FFF0E0001B26F33C2B3F0E4
:1000600034C2B4F035C2B5F0A0EC86F02C0E6FECC3
:10007000D8F0C60E0001B16FFF0E0001B26F0DC0C7
:10008000B3F00EC0B4F00FC0B5F0A0EC86F02C0EAB
:100090006FECD8F0C60E0001B16FFF0E0001B26F19
:1000A00042C2B3F043C2B4F044C2B5F0A0EC86F053
:1000B0002C0E6FECD8F0C60E0001B16FFF0E0001E0
:1000C000B26FC6C4B3F0C7C4B4F0C8C4B5F0A0ECF6
:1000D00086F02C0E6FECD8F0C60E0001B16FFF0E4B
:1000E0000001B26F0AC0B3F00BC0B4F00CC0B5F0A1
:1000F000A0EC86F02C0E6FECD8F0F20E0001B16F80
:10010000FF0E0001B26F88C2B3F089C2B4F0A0EC58
:1001100086F02C0E6FECD8F0C60E0001B16FFF0E0A
:100120000001B26FCAC0B3F0CBC0B4F0CCC0B5F020
:10013000A0EC86F02C0E6FECD8F0C60E0001B16F6B
:10014000FF0E0001B26FD3C0B3F0D4C0B4F0D5C07D
:10015000B5F0A0EC86F02C0E6FECD8F0F20E00019A
:10016000B16FFF0E0001B26F16C0B3F00001B46BA7
:10017000A0EC86F02C0E6FECD8F0F20E0001B16FFF
:10018000FF0E0001B26F3EC1B3F03FC1B4F0A0EC6E
:1001900086F02C0E6FECD8F0BF0E0001B16FFF0E91
:1001A0000001B26F0FC2B3F010C2B4F011C2B5F0CB
:1001B000A0EC86F02C0E6FECD8F0D40E0001B16FDD
:1001C000FF0E0001B26F07C0B3F008C0B4F009C061
:1001D000B5F0A0EC86F02C0E6FECD8F0D40E000138
:1001E000B16FFF0E0001B26F10C0B3F011C0B4F0D8
:1001F00012C0B5F0A0EC86F02C0E6FECD8F0D40E47
:100200000001B16FFF0E0001B26F01C0B3F002C078
:10021000B4F003C0B5F0A0EC86F02C0E6FECD8F073
:10022000BF0E0001B16FFF0E0001B26FCDC0B3F081
:10023000CEC0B4F0CFC0B5F0A0EC86F02C0E6FECC1
:10024000D8F0BF0E0001B16FFF0E0001B26FD6C033
:10025000B3F0D7C0B4F0D8C0B5F0A0EC86F02C0E47
:100260006FECD8F0BF0E0001B16FFF0E0001B26F4E
:10027000C4C0B3F0C5C0B4F0C6C0B5F0A0EC86F001
:100280002C0E6FECD8F0C60E0001B16FFF0E00010E
:10029000B26F22C0B3F023C0B4F024C0B5F0A0EC1C
:1002A00086F02C0E6FECD8F0C60E0001B16FFF0E79
:1002B0000001B26FF0C2B3F0F1C2B4F0F2C2B5F017
:1002C000A0EC86F02C0E6FECD8F0C60E0001B16FDA
:1002D000FF0E0001B26F18C2B3F019C2B4F01AC217
:1002E000B5F0A0EC86F02C0E6FECD8F0C60E000135
:1002F000B16FFF0E0001B26FABC4B3F0ACC4B4F089
:10030000ADC4B5F0A0EC86F02C0E6FECD8F0C60EA4
:100310000001B16FFF0E0001B26F2AC2B3F02BC211
:10032000B4F02CC2B5F0A0EC86F02C0E6FECD8F037
:10033000C60E0001B16FFF0E0001B26F72C2B3F0C2
:1003400073C2B4F074C2B5F0A0EC86F02C0E6FEC62
:10035000D8F0C60E0001B16FFF0E0001B26FC7C02A
:10036000B3F0C8C0B4F0C9C0B5F0A0EC86F02C0E54
:100370006FECD8F0F20E0001B16FFF0E0001B26F0A
:100380001EC0B3F00001B46BA0EC86F02C0E6FEC35
:10039000D8F0F20E0001B16FFF0E0001B26F20C065
:1003A000B3F00001B46BA0EC86F02C0E6FECD8F02B
:1003B000F20E0001B16FFF0E0001B26F2AC1B3F05F
:1003C0002BC1B4F0A0EC86F02C0E6FECD8F0F20E3E
:1003D0000001B16FFF0E0001B26F1BC0B3F000014E
:1003E000B46BA0EC86F02C0E6FECD8F0D4D1F50EE7
:1003F0000001B16FFF0E0001B26F550E0001B36F27
:10040000FF0E0001B46FA0EC86F02C0E6FECD8F05C
:100410005AD2F50E0001B16FFF0E0001B26FA40EAB
:100420000001B36FFE0E0001B46FA0EC86F02C0E3D
:100430006FECD8F048D2F50E0001B16FFF0E00014D
:10044000B26FAF0E0001B36FFE0E0001B46FA0ECEF
:1004500086F02C0E6FECD8F036D2F50E0001B16F9D
:10046000FF0E0001B26F5E0E0001B36FFF0E0001C0
:10047000B46FA0EC86F02C0E6FECD8F024D2F50E01
:100480000001B16FFF0E0001B26FCF0E0001B36F1C
:10049000FC0E0001B46FA0EC86F02C0E6FECD8F0CF
:1004A00012D2F50E0001B16FFF0E0001B26FD70E30
:1004B0000001B36FFE0E0001B46FA0EC86F02C0EAD
:1004C0006FECD8F000D2F50E0001B16FFF0E000105
:1004D000B26FDF0E0001B36FFF0E0001B46FA0EC2E
:1004E00086F02C0E6FECD8F0EED1F50E0001B16F56
:1004F000FF0E0001B26F780E0001B36FFE0E000117
:10050000B46FA0EC86F02C0E6FECD8F0DCD1F50EB9
:100510000001B16FFF0E0001B26FC30E0001B36F97
:10052000FD0E0001B46FA0EC86F02C0E6FECD8F03D
:10053000CAD1F50E0001B16FFF0E0001B26F6F0E50
:100540000001B36FFF0E0001B46FA0EC86F02C0E1B
:100550006FECD8F0B8D1F50E0001B16FFF0E0001BD
:10056000B26F950E0001B36FFF0E0001B46FA0ECE7
:1005700086F02C0E6FECD8F0A6D1F50E0001B16F0D
:10058000FF0E0001B26F6D0E0001B36FFE0E000191
:10059000B46FA0EC86F02C0E6FECD8F094D1F50E71
:1005A0000001B16FFF0E0001B26F620E0001B36F68
:1005B000FE0E0001B46FA0EC86F02C0E6FECD8F0AC
:1005C00082D1F50E0001B16FFF0E0001B26FA70ED0
:1005D0000001B36FFD0E0001B46FA0EC86F02C0E8D
:1005E0006FECD8F070D1F50E0001B16FFF0E000175
:1005F000B26FA30E0001B36FFF0E0001B46FA0EC49
:1006000086F02C0E6FECD8F05ED1F50E0001B16FC4
:10061000FF0E0001B26FB90E0001B36FFE0E0001B4
:10062000B46FA0EC86F02C0E6FECD8F04CD1F50E28
:100630000001B16FFF0E0001B26F130E0001B36F26
:10064000FF0E0001B46FA0EC86F02C0E6FECD8F01A
:100650003AD1F50E0001B16FFF0E0001B26FC30E6B
:100660000001B36FFE0E0001B46FA0EC86F02C0EFB
:100670006FECD8F028D1F50E0001B16FFF0E00012C
:10068000B26F570E0001B36FFE0E0001B46FA0EC05
:1006900086F02C0E6FECD8F016D1F50E0001B16F7C
:1006A000FF0E0001B26F990E0001B36FFE0E000144
:1006B000B46FA0EC86F02C0E6FECD8F004D1F50EE0
:1006C0000001B16FFF0E0001B26F310E0001B36F78
:1006D000FF0E0001B46FA0EC86F02C0E6FECD8F08A
:1006E000F2D0F50E0001B16FFF0E0001B26F8E0E59
:1006F0000001B36FFF0E0001B46FA0EC86F02C0E6A
:100700006FECD8F0E0D0F50E0001B16FFF0E0001E4
:10071000B26F350E0001B36FFE0E0001B46FA0EC96
:1007200086F02C0E6FECD8F0CED0F50E0001B16F34
:10073000FF0E0001B26F990E0001B36FFD0E0001B4
:10074000B46FA0EC86F02C0E6FECD8F0BCD0F50E98
:100750000001B16FFF0E0001B26F830E0001B36F95
:10076000FE0E0001B46FA0EC86F02C0E6FECD8F0FA
:10077000AAD0F50E0001B16FFF0E0001B26FD00ECE
:100780000001B36FFD0E0001B46FA0EC86F02C0EDB
:100790006FECD8F098D01B50000AD8B428D6010AC4
:1007A000D8B437D6030AD8B458D6010AD8B4C1D6BB
:1007B000070AD8B4ACD6010AD8B4B7D7030AD8B45C
:1007C0005ED6010AD8B469D70F0AD8B4C4D6010AD4
:1007D000D8B41BD7030AD8B4F4D6010AD8B403D7C7
:1007E000070AD8B470D6010AD8B45BD6030AD8B4C5
:1007F0001ED7010AD8B42DD71F0AD8B4D0D6010A03
:10080000D8B4BBD6030AD8B436D7010AD8B47BD73C
:10081000070AD8B466D7010AD8B451D7030AD8B4A6
:1008200096D7010AD8B461D60F0AD8B404D6010A03
:10083000D8B49FD748D0F50E0001B16FFF0E00016C
:10084000B26F7F0E0001B36FFF0E0001B46FA0EC1A
:1008500086F02C0E6FECD8F044D0F50E0001B16F8D
:10086000FF0E0001B26F9C0E0001B36FFF0E00017E
:10087000B46FA0EC86F02C0E6FECD8F032D0F50EF1
:100880000001B16FFF0E0001B26F670E0001B36F80
:10089000FF0E0001B46FA0EC86F02C0E6FECD8F0C8
:1008A00020D0F50E0001B16FFF0E0001B26F3A0EBD
:1008B0000001B36FFF0E0001B46FA0EC86F02C0EA8
:1008C0006FECD8F00ED00001F051000AD8B4B3D7C5
:1008D000010AD8B4C2D7030AD8B4D1D7010AD8B410
:1008E000E0D7F20E0001626F050E0001636F8CEC21
:1008F000CDF0F4C574F00001756B14ECCAF074C04F
:100900008CF275C08DF2F3C574F00001756B14ECB8
:10091000CAF074C08EF275C08FF2F2C574F0000197
:10092000756B14ECCAF074C090F275C091F2F6C504
:1009300074F00001756B14ECCAF074C08AF275C0D3
:100940008BF2F7C574F00001756B14ECCAF074C03B
:10095000E3F375C0E4F3F8C574F00001756B14ECB3
:10096000CAF074C0E5F375C0E6F3F5C574F0000194
:10097000756B14ECCAF074C0CAF575C0CBF5F20EF5
:100980000001B16FFF0E0001B26F8AC2B3F08BC2DB
:10099000B4F0A0EC86F02D0E6FECD8F0F20E000152
:1009A000B16FFF0E0001B26FE3C3B3F0E4C3B4F064
:1009B000A0EC86F02D0E6FECD8F0F20E0001B16FB6
:1009C000FF0E0001B26FE5C3B3F0E6C3B4F0A0ECD4
:1009D00086F02C0E6FECD8F0F20E0001B16FFF0E16
:1009E0000001B26F8CC2B3F08DC2B4F0A0EC86F0FF
:1009F0003A0E6FECD8F0F20E0001B16FFF0E00015D
:100A0000B26F8EC2B3F08FC2B4F0A0EC86F03A0E93
:100A10006FECD8F0F20E0001B16FFF0E0001B26F63
:100A200090C2B3F091C2B4F0A0EC86F02C0E6FEC43
:100A3000D8F0BF0E0001B16FFF0E0001B26F24C2EB
:100A4000B3F025C2B4F026C2B5F0A0EC86F02C0EAF
:100A50006FECD8F0F20E0001B16FFF0E0001B26F23
:100A6000E1C0B3F00001B46BA0EC86F02E0E6FEC89
:100A7000D8F0F20E0001B16FFF0E0001B26F52C14B
:100A8000B3F00001B46BA0EC86F02E0E6FECD8F042
:100A9000F20E0001B16FFF0E0001B26F53C1B3F04F
:100AA0000001B46BA0EC86F02E0E6FECD8F0F20EC5
:100AB0000001B16FFF0E0001B26F54C1B3F000012D
:100AC000B46BA0EC86F02E0E6FECD8F0F20E0001A5
:100AD000B16FFF0E0001B26F55C1B3F00001B46BEE
:100AE000A0EC86F02C0E6FECD8F0F20E0001B16F86
:100AF000FF0E0001B26F83CFB3F00001B46BA0EC26
:100B000086F02C0E6FECD8F0F20E0001B16FFF0EE4
:100B10000001B26F95C1B3F00001B46BA0EC86F098
:100B20002C0E6FECD8F0F20E0001B16FFF0E000139
:100B3000B26F40C1B3F041C1B4F0A0EC86F02C0E0E
:100B40006FECD8F0F20E0001B16FFF0E0001B26F32
:100B50007BC1B3F00001B46BA0EC86F02C0E6FECFF
:100B6000D8F0F20E0001B16FFF0E0001B26F7CC130
:100B7000B3F00001B46BA0EC86F02C0E6FECD8F053
:100B8000F20E0001B16FFF0E0001B26F02C5B3F0AB
:100B900003C5B4F0A0EC86F02C0E6FECD8F0F20E8A
:100BA0000001B16FFF0E0001B26F0EC5B3F00FC5AB
:100BB000B4F0A0EC86F02C0E6FECD8F0F20E000131
:100BC000B16FFF0E0001B26F15C0B3F00001B46B3E
:100BD000A0EC86F02C0E6FECD8F0F20E0001B16F95
:100BE000FF0E0001B26F12C5B3F013C5B4F0A0EC54
:100BF00086F02C0E6FECD8F0F20E0001B16FFF0EF4
:100C00000001B26FE3C0B3F00001B46BA0EC86F05A
:100C10002C0E6FECD8F0F20E0001B16FFF0E000148
:100C2000B26FE9C0B3F00001B46BA0EC86F02C0EFB
:100C30006FECD8F0F20E0001B16FFF0E0001B26F41
:100C400087C1B3F00001B46BA0EC86F02C0E6FEC02
:100C5000D8F0F20E0001B16FFF0E0001B26F17C0A5
:100C6000B3F00001B46BA0EC86F02C0E6FECD8F062
:100C7000F20E0001B16FFF0E0001B26F18C0B3F0A9
:100C80000001B46BA0EC86F02E0E6FECD8F0F20EE3
:100C90000001B16FFF0E0001B26F19C0B3F0000187
:100CA000B46BA0EC86F02E0E6FECD8F0F20E0001C3
:100CB000B16FFF0E0001B26F1AC0B3F00001B46B48
:100CC000A0EC86F02C0E6FECD8F0F20E0001B16FA4
:100CD000FF0E0001B26F92C1B3F00001B46BA0EC43
:100CE00086F02C0E6FECD8F0F20E0001B16FFF0E03
:100CF0000001B26F9CC1B3F00001B46BA0EC86F0B0
:100D00002C0E6FECD8F0F20E0001B16FFF0E000157
:100D1000B26F9DC1B3F00001B46BA0EC86F0FD0E84
:100D20000001606FFF0E0001616F83ECD6F0FB0ED7
:100D30000001606FFF0E0001616F83ECD6F01200BE
:100D4000B30E0101AF6F000E0101B06F00EF8DF027
:100D5000250E0101C619D8B406D00101C65176ECA2
:100D6000D8F000EF8DF0000E0101C06F000EBF6FD4
:100D7000000E0101B46F000EB36FB1C0F6FFB2C038
:100D8000F7FF000EF86E0800F5508FECD7F0D8A0F2
:100D900044D0000E0101C06F000EBF6FBFC16EF0E6
:100DA000C0C16FF0000E0001716F0A0E706FB9ECD8
:100DB000D6F06EC0BFF16FC0C0F1D00E0001B66FAB
:100DC000FF0E0001B76FB1C0F6FFB2C0F7FF000E13
:100DD000F86E0800F5500001B86FB96B0001B6510C
:100DE0000001B8270001B7510001B9230001B85133
:100DF0000101BF270001B9510101C0230001B14B1E
:100E0000B22BB1C0F6FFB2C0F7FF000EF86E0800BB
:100E1000F5508FECD7F0D8B0C1D7B1C0F6FFB2C053
:100E2000F7FF000EF86E0800F5502E0AD8A43DD04A
:100E30000101B48D0001B14BB22B000E0101C56F51
:100E4000000EC46F25D0C4C16EF0C5C16FF0000E96
:100E50000001716F0A0E706FB9ECD6F0B1C0F6FFE9
:100E6000B2C0F7FF000EF86E0800F55000016E27C3
:100E7000000E00016F23D00E00016E250101C46F2A
:100E8000FF0E00016F210101C56F0001B14BB22BB4
:100E9000B1C0F6FFB2C0F7FF000EF86E0800F550C3
:100EA0008FECD7F0D8A0B0D0CED7000E0101C56F1F
:100EB000000EC46F0101B489A7D00101B485C6D06A
:100EC000AFC1D9FFB0C1DAFFDECFADF1DDCFAEF1FA
:100ED000020E0101AF27000EB0230101AD51010147
:100EE000AE11D8A406D0870E0101AD6FFF0E01012F
:100EF000AE6F000E0101B26F000EB16F03D00101A1
:100F0000B14BB22B0101B1510101AD250001B66F0A
:100F10000101B2510101AE210001B76FB6C0F6FF69
:100F2000B7C0F7FF000EF86E0F0EF76403D008008D
:100F3000F55005D0F6CFD9FFF7CFDAFFDF50000923
:100F4000D8A4DDD70101C4510101C511D8B40ED018
:100F50000101B1510101C45D0101B2510101C55945
:100F6000D8B004D0C4C1B1F1C5C1B2F10101BF51C3
:100F70000101B15D0101C0510101B259D8B009D0E0
:100F80000101B1510101BF5F0101B2510101C05B1B
:100F900009D0000E0101C06F000EBF6F03D0200EFC
:100FA00076ECD8F00101BF07D8A0C0070101BF2926
:100FB000F6E10101C029D8B417D0F1D7ADC1F6FFD1
:100FC000AEC1F7FF000EF86E0F0EF76403D00800F5
:100FD000F55005D0F6CFD9FFF7CFDAFFDF5076EC2A
:100FE000D8F00101AD4BAE2B0101B107D8A0B2077B
:100FF0000101B129E3E10101B229D8B400EF8DF07C
:10100000DDD70101B38D22D0B1C0F6FFB2C0F7FF2A
:101010000001B14BB22B000EF86E0800F5CFC6F1FF
:101020000101C651000AD8B41200640AD8B40ED027
:10103000020AD8B442D70F0AD8B408D01A0AD8B4D2
:101040003FD7060AD8B4DDD700EF8DF0070E0101B7
:10105000B415D8B45DD30101B4A905D0000E0101C7
:10106000C56F060EC46FAFC1D9FFB0C1DAFFDECFC6
:10107000C1F1DECFC2F1DDCFC3F1030E0101AF2715
:10108000000EB0230101C3AF11D0C1C183F0C2C1B2
:1010900084F0C3C185F01DECD7F083C0C1F184C0DA
:1010A000C2F185C0C3F1030E0101B313000E0101AB
:1010B000BE6F000EBD6F0101C1510101C2110101DE
:1010C000C311D8B49BD0820E0001B66FFF0E000191
:1010D000B76FC1C1B8F0C2C1B9F0C3C1BAF0C4C1E1
:1010E000BBF0100E06D00001D890BB33BA33B93331
:1010F000B833E82EF8D70001B8510001B625010138
:10110000BD6F000E0001B7210101BE6F0101BD07D7
:10111000D8A0BE07BDC16EF0BEC16FF0000E0001C9
:10112000716F030E706FB9ECD6F06EC0BDF16FC079
:10113000BEF1BDC166F0BEC167F0000E0001696F6F
:101140000A0E686F70ECCCF066C0BDF167C0BEF1EE
:101150000101BEAF04D00101BD07D8A0BE07010147
:10116000BD51000832EC9FF083C0B5F184C0B6F1E8
:1011700085C0B7F1B5C174F0B6C175F0B7C176F0EE
:10118000C1C177F0C2C178F0C3C179F000ECC1F001
:1011900074C0B5F175C0B6F176C0B7F1B5C199F0BC
:1011A000B6C19AF0B7C19BF0000E00019C6F800E93
:1011B00000019D6F3F0E00019E6F4BECCBF00001D4
:1011C000D8B005D00101BD07D8A0BE0717D0B5C162
:1011D00099F0B6C19AF0B7C19BF0000E00019C6F68
:1011E000200E00019D6F410E00019E6F4BECCBF075
:1011F0000001D8A003D00101BD4BBE2B0101C5BF2A
:1012000008D00101C5511DE10D0E0101C45DD8B02A
:1012100018D0C1C18DF0C2C18EF0C3C18FF00101E1
:10122000C45163ECACF083C090F084C091F085C0F1
:1012300092F0BEECB2F08DC0C1F18EC0C2F18FC091
:10124000C3F10101BEBF08D00101BE512AE10A0E5F
:101250000101BD5DD8B025D00101C1510101C2110C
:101260000101C311D8B463D0C1C18AF0C2C18BF0EF
:10127000C3C18CF055ECC2F000018A5100018B1102
:1012800000018C1100018D11D8A451D00101BEBF05
:101290004ED00101BE5105E1020E0101BD5DD8A095
:1012A00046D0B5C199F0B6C19AF0B7C19BF0700EA7
:1012B00000019C6F890E00019D6F400E00019E6F22
:1012C0004BECCBF00001D8B003D00101F70E02D0F7
:1012D0000101F80EBD27FF0EBE230101BD5132EC06
:1012E0009FF083C0B5F184C0B6F185C0B7F1C1C12C
:1012F00060F0C2C161F0C3C162F0B5C163F0B6C1B4
:1013000064F0B7C165F0CFECBBF060C0B9F161C06B
:10131000BAF162C0BBF163C0BCF1000E0101C16F44
:10132000000E0101C26F000E0101C36F33D0C1C1B5
:101330008AF0C2C18BF0C3C18CF055ECC2F08AC0F8
:10134000B9F18BC0BAF18CC0BBF18DC0BCF1C1C189
:10135000ABF0C2C1ACF0C3C1ADF0B9C168F0BAC165
:1013600069F0BBC16AF0BCC16BF0F7ECD2F068C0A9
:10137000AEF069C0AFF06AC0B0F0C1ECD5F0ABC060
:10138000C1F1ACC0C2F1ADC0C3F1000E0101BE6F2E
:10139000000EBD6F010E0101C66F0A0E0101C619D4
:1013A000D8B421D00101C651040D8B0EF324F66E82
:1013B000FB0EF420F76EF86A000EF8220900F550D3
:1013C0000101B95D0900F5500101BA590900F55054
:1013D0000101BB590900F5500101BC59D8A003D047
:1013E0000101C62BDAD7C6C1B6F00001B76BB6BF94
:1013F000B7070101C4510001B6270101C551000121
:10140000B7230101BD510001B6270101BE51000102
:10141000B7230001B6510101BF5F0001B7510101BF
:10142000C05B0101C4510101C511D8B404D0010150
:10143000BF07D8A0C007030E0101B3150001B66FA6
:10144000000E0101B4150001B76F0001B651000193
:10145000B711D8B408D003D0200E76ECD8F0010133
:10146000BF07D8A0C0070101C0BF07D00101C0510C
:10147000F3E10101BF05D8B0EFD7030E0101B315A9
:101480000001B66F000E0101B4150001B76F000135
:10149000B6510001B711D8B44ED02D0E76ECD8F06D
:1014A0004AD0B9C160F0BAC161F0BBC162F0BCC141
:1014B00063F00101C651040D8B0EF324F66EFB0E92
:1014C000F420F76EF86A000EF8220900F5CF64F0F8
:1014D0000900F5CF65F00900F5CF66F00A00F5CFF9
:1014E00067F02EECCDF060C0B5F161C0B6F162C01E
:1014F000B7F163C0B8F1B5C16DF0B6C16EF0B7C158
:101500006FF0B8C170F00A0E0001716F000E726FBB
:10151000000E736F000E746F97ECD1F06DC0B5F1D3
:101520006EC0B6F16FC0B7F170C0B8F10101B5512E
:10153000300F76ECD8F00101C6070101C629D8B4F6
:1015400008D0AFD7300E76ECD8F00101BD07D8A097
:10155000BE070101BEBF07D00101BE51F3E1010189
:10156000BD05D8B0EFD70101C5BF0CD00101C551F1
:1015700005E1090E0101C45DD8A004D0080E0101E7
:10158000C66F02D0C4C1C6F10101C6510101C45FDA
:10159000000E0101C6BFFF0E0101C55B0101C6516E
:1015A0000101D8B403D02E0E76ECD8F00101C6515B
:1015B00032EC9FF083C0AAF184C0ABF185C0ACF1DE
:1015C000C1C177F0C2C178F0C3C179F0AAC174F08B
:1015D000ABC175F0ACC176F000ECC1F074C08AF01C
:1015E00075C08BF076C08CF055ECC2F08AC0B9F1B2
:1015F0008BC0BAF18CC0BBF18DC0BCF174D0B9C145
:1016000060F0BAC161F0BBC162F0BCC163F001011E
:10161000C651040D8B0EF324F66EFB0EF420F76E0C
:10162000F86A000EF8220900F5CF64F00900F5CF42
:1016300065F00900F5CF66F00A00F5CF67F02EECF3
:10164000CDF060C0B5F161C0B6F162C0B7F163C062
:10165000B8F1B5C16DF0B6C16EF0B7C16FF0B8C1E9
:1016600070F00A0E0001716F000E726F000E736F42
:10167000000E746F97ECD1F06DC0B5F16EC0B6F18D
:101680006FC0B7F170C0B8F10101B551300F76EC01
:10169000D8F0B9C16DF0BAC16EF0BBC16FF0BCC17A
:1016A00070F00101C651040D8B0EF324F66EFB0E93
:1016B000F420F76EF86A000EF8220900F5CF71F0F9
:1016C0000900F5CF72F00900F5CF73F00A00F5CFED
:1016D00074F097ECD1F06DC0B9F16EC0BAF16FC083
:1016E000BBF170C0BCF10101C6070101C629D8B425
:1016F00008D085D7300E76ECD8F00101C407D8A009
:10170000C5070101C4510101C511D8B479D1F2D77F
:101710000101B3BD23D0AFC1D9FFB0C1DAFFDECF25
:10172000B9F1DDCFBAF10101000EBABFFF0EBB6FF8
:10173000BC6F020E0101AF27000EB0230101BCAF48
:1017400021D0030E0101B3130101BC1FBB1FBA1F3F
:10175000B96D000EBA23BB23BC2314D0AFC1D9FF8F
:10176000B0C1DAFFDECFB6F0DDCFB7F0B6C0B9F169
:10177000B7C0BAF10101BB6BBC6B020E0101AF2710
:10178000000EB0230101C4510101C511D8A40DD030
:101790000101B9510101BA110101BB110101BC11D3
:1017A000D8A403D00101C44BC52B010E0101C66FA3
:1017B0000A0E0101C619D8B421D00101C651040D89
:1017C0008B0EF324F66EFB0EF420F76EF86A000E13
:1017D000F8220900F5500101B95D0900F550010139
:1017E000BA590900F5500101BB590900F550010132
:1017F000BC59D8A003D00101C62BDAD7800E010155
:10180000C6BF7F0E0001B66F0101C4510101C65D64
:101810000101C551800A0001B659D8B003D0C4C136
:10182000C6F118D00101C551800A0001B66F01014F
:10183000C6510101C45D800E0101C6BF7F0E0001CB
:10184000B659D8B007D00101C6510101C46FC56BAC
:10185000C4BFC5070101BF510101C011D8B414D0E4
:10186000030E0101B3150001B66F000E0101B4159E
:101870000001B76F0001B6510001B711D8B404D010
:101880000101BF07D8A0C0070101B4AD1ED00101FE
:10189000BF510101C45D0101C551800A0001B66F4D
:1018A0000101C051800A0001B659D8B009D0010128
:1018B000C4510101BF5F0101C5510101C05B05D0E9
:1018C000000E0101C06F000EBF6F800E0101C6BF88
:1018D0007F0E0001B66F0101BF510101C65D01011C
:1018E000C051800A0001B659D8B00BD00101C651D1
:1018F0000101BF5F000E0101C6BFFF0E0101C05B09
:1019000005D0000E0101C06F000EBF6F0101BF5175
:101910000101C011D8B40DD0200E76ECD8F0010131
:10192000BF07D8A0C0070101BF510101C011D8A451
:10193000F3D7030E0101B3150001B66F000E0101CC
:10194000B4150001B76F0001B6510001B711D8B44A
:101950004CD02D0E76ECD8F048D0C4C1B6F0C5C13D
:10196000B7F00001D890B637B7370001D890B63736
:10197000B7378B0E0001B625F66EFB0EB721F76E5A
:10198000F86A000EF8220900F5CF64F00900F5CFDF
:1019900065F00900F5CF66F00A00F5CF67F0B9C130
:1019A00060F0BAC161F0BBC162F0BCC163F02EEC63
:1019B000CDF060C06DF061C06EF062C06FF063C0CA
:1019C00070F00A0E0001716F000E726F000E736FDF
:1019D000000E746F97ECD1F000016D51300F0101D2
:1019E000C66F0101C65176ECD8F00101C407D8A03A
:1019F000C5070101C429B1E10101C529D8A4ADD7AA
:101A0000B1C0F6FFB2C0F7FF0001B14BB22B000E20
:101A1000F86E0800F5CFC6F10101C651D8B4120026
:101A2000A8EF86F072C490F073C491F074C492F081
:101A300075C48DF076C48EF077C48FF0BEECB2F032
:101A40008DC0C3F68EC0C4F68FC0C5F66FC490F0CB
:101A500070C491F071C492F0C3C68DF0C4C68EF00C
:101A6000C5C68FF0BEECB2F08DC0C6F68EC0C7F60C
:101A70008FC0C8F66CC490F06DC491F06EC492F043
:101A8000C6C68DF0C7C68EF0C8C68FF0BEECB2F0E9
:101A90008DC0C9F68EC0CAF68FC0CBF669C490F06F
:101AA0006AC491F06BC492F0C9C68DF0CAC68EF0BC
:101AB000CBC68FF0BEECB2F08DC0A5F08EC0A6F004
:101AC0008FC0A7F0000E0001A86FA00E0001A96F43
:101AD000400E0001AA6FAFECC1F0A5C06CF2A6C029
:101AE0006DF2A7C06EF2AEC3B1F3AFC3B2F3B0C331
:101AF000B3F3ABC3AEF3ACC3AFF3ADC3B0F3A8C3A2
:101B0000ABF3A9C3ACF3AAC3ADF3A5C3A8F3A6C3B3
:101B1000A9F3A7C3AAF3A2C3A5F3A3C3A6F3A4C3BF
:101B2000A7F39FC3A2F3A0C3A3F3A1C3A4F39CC3D1
:101B30009FF39DC3A0F39EC3A1F399C39CF39AC3E3
:101B40009DF39BC39EF396C399F397C39AF398C3EF
:101B50009BF393C396F394C397F395C398F390C301
:101B600093F391C394F392C395F38DC390F38EC313
:101B700091F38FC392F38AC38DF38BC38EF38CC31F
:101B80008FF387C38AF388C38BF389C38CF384C331
:101B900087F385C388F386C389F381C384F382C343
:101BA00085F383C386F37EC381F37FC382F380C34F
:101BB00083F37BC37EF37CC37FF37DC380F378C361
:101BC0007BF379C37CF37AC37DF375C378F376C373
:101BD00079F377C37AF372C375F373C376F374C37F
:101BE00077F36FC372F370C373F371C374F36CC391
:101BF0006FF36DC370F36EC371F369C36CF36AC3A3
:101C00006DF36BC36EF366C369F367C36AF368C3AE
:101C10006BF363C366F364C367F365C368F360C3C0
:101C200063F361C364F362C365F35DC360F35EC3D2
:101C300061F35FC362F35AC35DF35BC35EF35CC3DE
:101C40005FF3CD0E0001776F4C0E0001786F3F0EF1
:101C50000001796F1BC174F01CC175F01DC176F0D5
:101C600000ECC1F074C099F075C09AF076C09BF09A
:101C70006CC29CF06DC29DF06EC29EF04BECCBF03E
:101C80000001D8B028D06CC299F06DC29AF06EC233
:101C90009BF09A0E0001776F990E0001786F3F0E4E
:101CA0000001796F1BC174F01CC175F01DC176F085
:101CB00000ECC1F074C09CF075C09DF076C09EF041
:101CC0004BECCBF00001D8B006D01BC15AF31CC1BD
:101CD0005BF31DC15CF3AEC390F0AFC391F0B0C332
:101CE00092F0B1C38DF0B2C38EF0B3C38FF0BEECEF
:101CF000B2F08DC0C3F68EC0C4F68FC0C5F6ABC3BC
:101D000090F0ACC391F0ADC392F0C3C68DF0C4C6E1
:101D10008EF0C5C68FF0BEECB2F08DC0C6F68EC098
:101D2000C7F68FC0C8F6A8C390F0A9C391F0AAC3A4
:101D300092F0C6C68DF0C7C68EF0C8C68FF0BEEC56
:101D4000B2F08DC0C9F68EC0CAF68FC0CBF6A5C35F
:101D500090F0A6C391F0A7C392F0C9C68DF0CAC691
:101D60008EF0CBC68FF0BEECB2F08DC078F68EC090
:101D700079F68FC07AF6A2C390F0A3C391F0A4C302
:101D800092F078C68DF079C68EF07AC68FF0BEECF0
:101D9000B2F08DC07BF68EC07CF68FC07DF69FC3FF
:101DA00090F0A0C391F0A1C392F07BC68DF07CC6E9
:101DB0008EF07DC68FF0BEECB2F08DC07EF68EC088
:101DC0007FF68FC080F69CC390F09DC391F09EC3B8
:101DD00092F07EC68DF07FC68EF080C68FF0BEEC8E
:101DE000B2F08DC081F68EC082F68FC083F699C3A3
:101DF00090F09AC391F09BC392F081C68DF082C699
:101E00008EF083C68FF0BEECB2F08DC084F68EC02B
:101E100085F68FC086F696C390F097C391F098C36D
:101E200092F084C68DF085C68EF086C68FF0BEEC2B
:101E3000B2F08DC087F68EC088F68FC089F693C346
:101E400090F094C391F095C392F087C68DF088C648
:101E50008EF089C68FF0BEECB2F08DC08AF68EC0CF
:101E60008BF68FC08CF690C390F091C391F092C323
:101E700092F08AC68DF08BC68EF08CC68FF0BEECC9
:101E8000B2F08DC08DF68EC08EF68FC08FF68DC3EA
:101E900090F08EC391F08FC392F08DC68DF08EC6F8
:101EA0008EF08FC68FF0BEECB2F08DC090F68EC073
:101EB00091F68FC092F68AC390F08BC391F08CC3D9
:101EC00092F090C68DF091C68EF092C68FF0BEEC67
:101ED000B2F08DC093F68EC094F68FC095F687C38E
:101EE00090F088C391F089C392F093C68DF094C6A8
:101EF0008EF095C68FF0BEECB2F08DC096F68EC017
:101F000097F68FC098F684C390F085C391F086C38E
:101F100092F096C68DF097C68EF098C68FF0BEEC04
:101F2000B2F08DC099F68EC09AF68FC09BF681C331
:101F300090F082C391F083C392F099C68DF09AC657
:101F40008EF09BC68FF0BEECB2F08DC09CF68EC0BA
:101F50009DF68FC09EF67EC390F07FC391F080C344
:101F600092F09CC68DF09DC68EF09EC68FF0BEECA2
:101F7000B2F08DC09FF68EC0A0F68FC0A1F67BC3D5
:101F800090F07CC391F07DC392F09FC68DF0A0C607
:101F90008EF0A1C68FF0BEECB2F08DC0A2F68EC05E
:101FA000A3F68FC0A4F678C390F079C391F07AC3FA
:101FB00092F0A2C68DF0A3C68EF0A4C68FF0BEEC40
:101FC000B2F08DC0A5F68EC0A6F68FC0A7F675C379
:101FD00090F076C391F077C392F0A5C68DF0A6C6B7
:101FE0008EF0A7C68FF0BEECB2F08DC0A8F68EC002
:101FF000A9F68FC0AAF672C390F073C391F074C3B0
:1020000092F0A8C68DF0A9C68EF0AAC68FF0BEECDD
:10201000B2F08DC0ABF68EC0ACF68FC0ADF66FC31C
:1020200090F070C391F071C392F0ABC68DF0ACC666
:102030008EF0ADC68FF0BEECB2F08DC0AEF68EC0A5
:10204000AFF68FC0B0F66CC390F06DC391F06EC365
:1020500092F0AEC68DF0AFC68EF0B0C68FF0BEEC7B
:10206000B2F08DC0B1F68EC0B2F68FC0B3F669C3C0
:1020700090F06AC391F06BC392F0B1C68DF0B2C616
:102080008EF0B3C68FF0BEECB2F08DC0B4F68EC049
:10209000B5F68FC0B6F666C390F067C391F068C31B
:1020A00092F0B4C68DF0B5C68EF0B6C68FF0BEEC19
:1020B000B2F08DC0B7F68EC0B8F68FC0B9F663C364
:1020C00090F064C391F065C392F0B7C68DF0B8C6C6
:1020D0008EF0B9C68FF0BEECB2F08DC0BAF68EC0ED
:1020E000BBF68FC0BCF660C390F061C391F062C3D1
:1020F00092F0BAC68DF0BBC68EF0BCC68FF0BEECB7
:10210000B2F08DC0BDF68EC0BEF68FC0BFF65DC307
:1021100090F05EC391F05FC392F0BDC68DF0BEC675
:102120008EF0BFC68FF0BEECB2F08DC0C0F68EC090
:10213000C1F68FC0C2F6C0C68DF0C1C68EF0C2C651
:102140008FF05AC390F05BC391F05CC392F0BEEC89
:10215000B2F08DC0EDF28EC0EEF28FC0EFF2EDC2A4
:10216000A5F0EEC2A6F0EFC2A7F0000E0001A86F26
:10217000F00E0001A96F410E0001AA6FAFECC1F093
:10218000A5C0EDF2A6C0EEF2A7C0EFF2090E000165
:10219000776FC90E0001786F400E0001796FEDC2B4
:1021A00074F0EEC275F0EFC276F000ECC1F074C0CE
:1021B0008DF075C08EF076C08FF0720E0001906FBA
:1021C000130E0001916FBF0E0001926FBEECB2F0D2
:1021D0008DC0BEF58EC0BFF58FC0C0F5BEC5C1F0C5
:1021E000BFC5C2F0C0C5C3F010ECCCF0C1C072F2E4
:1021F000C2C073F2C3C074F21200CFC390F0D0C358
:1022000091F0D1C392F0D2C38DF0D3C38EF0D4C37A
:102210008FF0BEECB2F08DC0C3F68EC0C4F68FC096
:10222000C5F6CCC390F0CDC391F0CEC392F0C3C637
:102230008DF0C4C68EF0C5C68FF0BEECB2F08DC076
:10224000C6F68EC0C7F68FC0C8F6C9C390F0CAC321
:1022500091F0CBC392F0C6C68DF0C7C68EF0C8C64B
:102260008FF0BEECB2F08DC0C9F68EC0CAF68FC03A
:10227000CBF6C6C390F0C7C391F0C8C392F0C9C6ED
:102280008DF0CAC68EF0CBC68FF0BEECB2F08DC01A
:10229000A5F08EC0A6F08FC0A7F0000E0001A86FB9
:1022A000A00E0001A96F400E0001AA6FAFECC1F0B3
:1022B000A5C01BF2A6C01CF2A7C01DF254C357F361
:1022C00055C358F356C359F351C354F352C355F38E
:1022D00053C356F34EC351F34FC352F350C353F39A
:1022E0004BC34EF34CC34FF34DC350F348C34BF3B2
:1022F00049C34CF34AC34DF345C348F346C349F3BE
:1023000047C34AF342C345F343C346F344C347F3C9
:102310003FC342F340C343F341C344F33CC33FF3E1
:102320003DC340F33EC341F339C33CF33AC33DF3ED
:102330003BC33EF336C339F337C33AF338C33BF3F9
:1023400033C336F334C337F335C338F330C333F311
:1023500031C334F332C335F32DC330F32EC331F31D
:102360002FC332F32AC32DF32BC32EF32CC32FF329
:1023700027C32AF328C32BF329C32CF324C327F341
:1023800025C328F326C329F321C324F322C325F34D
:1023900023C326F31EC321F31FC322F320C323F359
:1023A0001BC31EF31CC31FF31DC320F318C31BF371
:1023B00019C31CF31AC31DF315C318F316C319F37D
:1023C00017C31AF312C315F313C316F314C317F389
:1023D0000FC312F310C313F311C314F30CC30FF3A1
:1023E0000DC310F30EC311F309C30CF30AC30DF3AD
:1023F0000BC30EF306C309F307C30AF308C30BF3B9
:1024000003C306F304C307F305C308F300C303F3D0
:1024100001C304F302C305F3CD0E0001776F4C0E28
:102420000001786F3F0E0001796F0FC174F010C189
:1024300075F011C176F000ECC1F074C099F075C070
:102440009AF076C09BF01BC29CF01CC29DF01DC28E
:102450009EF04BECCBF00001D8B028D01BC299F015
:102460001CC29AF01DC29BF09A0E0001776F990E64
:102470000001786F3F0E0001796F0FC174F010C139
:1024800075F011C176F000ECC1F074C09CF075C01D
:102490009DF076C09EF04BECCBF00001D8B006D09A
:1024A0000FC100F310C101F311C102F354C390F046
:1024B00055C391F056C392F057C38DF058C38EF0B8
:1024C00059C38FF0BEECB2F08DC0C3F68EC0C4F617
:1024D0008FC0C5F651C390F052C391F053C392F030
:1024E000C3C68DF0C4C68EF0C5C68FF0BEECB2F088
:1024F0008DC0C6F68EC0C7F68FC0C8F64EC390F02A
:102500004FC391F050C392F0C6C68DF0C7C68EF08F
:10251000C8C68FF0BEECB2F08DC0C9F68EC0CAF648
:102520008FC0CBF64BC390F04CC391F04DC392F0EB
:10253000C9C68DF0CAC68EF0CBC68FF0BEECB2F025
:102540008DC078F68EC079F68FC07AF648C390F0C9
:1025500049C391F04AC392F078C68DF079C68EF0E7
:102560007AC68FF0BEECB2F08DC07BF68EC07CF6E2
:102570008FC07DF645C390F046C391F047C392F0FB
:102580007BC68DF07CC68EF07DC68FF0BEECB2F0BF
:102590008DC07EF68EC07FF68FC080F642C390F06D
:1025A00043C391F044C392F07EC68DF07FC68EF097
:1025B00080C68FF0BEECB2F08DC081F68EC082F680
:1025C0008FC083F63FC390F040C391F041C392F0B7
:1025D00081C68DF082C68EF083C68FF0BEECB2F05D
:1025E0008DC084F68EC085F68FC086F63CC390F011
:1025F0003DC391F03EC392F084C68DF085C68EF047
:1026000086C68FF0BEECB2F08DC087F68EC088F61D
:102610008FC089F639C390F03AC391F03BC392F072
:1026200087C68DF088C68EF089C68FF0BEECB2F0FA
:102630008DC08AF68EC08BF68FC08CF636C390F0B4
:1026400037C391F038C392F08AC68DF08BC68EF0F6
:102650008CC68FF0BEECB2F08DC08DF68EC08EF6BB
:102660008FC08FF633C390F034C391F035C392F02E
:102670008DC68DF08EC68EF08FC68FF0BEECB2F098
:102680008DC090F68EC091F68FC092F630C390F058
:1026900031C391F032C392F090C68DF091C68EF0A6
:1026A00092C68FF0BEECB2F08DC093F68EC094F659
:1026B0008FC095F62DC390F02EC391F02FC392F0EA
:1026C00093C68DF094C68EF095C68FF0BEECB2F036
:1026D0008DC096F68EC097F68FC098F62AC390F0FC
:1026E0002BC391F02CC392F096C68DF097C68EF056
:1026F00098C68FF0BEECB2F08DC099F68EC09AF6F7
:102700008FC09BF627C390F028C391F029C392F0A5
:1027100099C68DF09AC68EF09BC68FF0BEECB2F0D3
:102720008DC09CF68EC09DF68FC09EF624C390F09F
:1027300025C391F026C392F09CC68DF09DC68EF005
:102740009EC68FF0BEECB2F08DC09FF68EC0A0F694
:102750008FC0A1F621C390F022C391F023C392F061
:102760009FC68DF0A0C68EF0A1C68FF0BEECB2F071
:102770008DC0A2F68EC0A3F68FC0A4F61EC390F043
:102780001FC391F020C392F0A2C68DF0A3C68EF0B5
:10279000A4C68FF0BEECB2F08DC0A5F68EC0A6F632
:1027A0008FC0A7F61BC390F01CC391F01DC392F01D
:1027B000A5C68DF0A6C68EF0A7C68FF0BEECB2F00F
:1027C0008DC0A8F68EC0A9F68FC0AAF618C390F0E7
:1027D00019C391F01AC392F0A8C68DF0A9C68EF065
:1027E000AAC68FF0BEECB2F08DC0ABF68EC0ACF6D0
:1027F0008FC0ADF615C390F016C391F017C392F0D9
:10280000ABC68DF0ACC68EF0ADC68FF0BEECB2F0AC
:102810008DC0AEF68EC0AFF68FC0B0F612C390F08A
:1028200013C391F014C392F0AEC68DF0AFC68EF014
:10283000B0C68FF0BEECB2F08DC0B1F68EC0B2F66D
:102840008FC0B3F60FC390F010C391F011C392F094
:10285000B1C68DF0B2C68EF0B3C68FF0BEECB2F04A
:102860008DC0B4F68EC0B5F68FC0B6F60CC390F02E
:102870000DC391F00EC392F0B4C68DF0B5C68EF0C4
:10288000B6C68FF0BEECB2F08DC0B7F68EC0B8F60B
:102890008FC0B9F609C390F00AC391F00BC392F050
:1028A000B7C68DF0B8C68EF0B9C68FF0BEECB2F0E8
:1028B0008DC0BAF68EC0BBF68FC0BCF606C390F0D2
:1028C00007C391F008C392F0BAC68DF0BBC68EF074
:1028D000BCC68FF0BEECB2F08DC0BDF68EC0BEF6A9
:1028E0008FC0BFF603C390F004C391F005C392F00C
:1028F000BDC68DF0BEC68EF0BFC68FF0BEECB2F086
:102900008DC0C0F68EC0C1F68FC0C2F6C0C68DF0B5
:10291000C1C68EF0C2C68FF000C390F001C391F023
:1029200002C392F0BEECB2F08DC0EAF28EC0EBF2C0
:102930008FC0ECF2EAC2A5F0EBC2A6F0ECC2A7F0A1
:10294000000E0001A86FF00E0001A96F410E0001FA
:10295000AA6FAFECC1F0A5C0EAF2A6C0EBF2A7C027
:10296000ECF2090E0001776FC90E0001786F400E7E
:102970000001796FEAC274F0EBC275F0ECC276F038
:1029800000ECC1F074C08DF075C08EF076C08FF091
:10299000720E0001906F130E0001916FBF0E0001C7
:1029A000926FBEECB2F08DC097F58EC098F58FC0D7
:1029B00099F597C5C1F098C5C2F099C5C3F010EC60
:1029C000CCF0C1C094F5C2C095F5C3C096F5120015
:1029D00063C490F064C491F065C492F066C48DF055
:1029E00067C48EF068C48FF0BEECB2F08DC0C3F641
:1029F0008EC0C4F68FC0C5F660C490F061C491F07B
:102A000062C492F0C3C68DF0C4C68EF0C5C68FF006
:102A1000BEECB2F08DC0C6F68EC0C7F68FC0C8F649
:102A20005DC490F05EC491F05FC492F0C6C68DF0B4
:102A3000C7C68EF0C8C68FF0BEECB2F08DC0C9F626
:102A40008EC0CAF68FC0CBF65AC490F05BC491F02A
:102A50005CC492F0C9C68DF0CAC68EF0CBC68FF0AA
:102A6000BEECB2F08DC0A5F08EC0A6F08FC0A7F06E
:102A7000000E0001A86FA00E0001A96F400E00011A
:102A8000AA6FAFECC1F0A5C003F2A6C004F2A7C0C4
:102A900005F254C457F455C458F456C459F451C4FB
:102AA00054F452C455F453C456F44EC451F44FC4B4
:102AB00052F450C453F44BC44EF44CC44FF44DC4C0
:102AC00050F448C44BF449C44CF44AC44DF445C4D2
:102AD00048F446C449F447C44AF442C445F443C4E4
:102AE00046F444C447F43FC442F440C443F441C4F0
:102AF00044F43CC43FF43DC440F43EC441F439C402
:102B00003CF43AC43DF43BC43EF436C439F437C413
:102B10003AF438C43BF433C436F434C437F435C41F
:102B200038F430C433F431C434F432C435F42DC431
:102B300030F42EC431F42FC432F42AC42DF42BC443
:102B40002EF42CC42FF427C42AF428C42BF429C44F
:102B50002CF424C427F425C428F426C429F421C461
:102B600024F422C425F423C426F41EC421F41FC473
:102B700022F420C423F41BC41EF41CC41FF41DC47F
:102B800020F418C41BF419C41CF41AC41DF415C491
:102B900018F416C419F417C41AF412C415F413C4A3
:102BA00016F414C417F40FC412F410C413F411C4AF
:102BB00014F40CC40FF40DC410F40EC411F409C4C1
:102BC0000CF40AC40DF40BC40EF406C409F407C4D3
:102BD0000AF408C40BF403C406F404C407F405C4DF
:102BE00008F400C403F401C404F402C405F4CD0ED7
:102BF0000001776F4C0E0001786F3F0E0001796F76
:102C000003C174F004C175F005C176F000ECC1F0A9
:102C100074C099F075C09AF076C09BF003C29CF026
:102C200004C29DF005C29EF04BECCBF00001D8B081
:102C300028D003C299F004C29AF005C29BF09A0E04
:102C40000001776F990E0001786F3F0E0001796FD8
:102C500003C174F004C175F005C176F000ECC1F059
:102C600074C09CF075C09DF076C09EF04BECCBF02C
:102C70000001D8B006D003C100F404C101F405C1BD
:102C800002F454C490F055C491F056C492F057C465
:102C90008DF058C48EF059C48FF0BEECB2F08DC0E8
:102CA000C3F68EC0C4F68FC0C5F651C490F052C4AE
:102CB00091F053C492F0C3C68DF0C4C68EF0C5C661
:102CC0008FF0BEECB2F08DC0C6F68EC0C7F68FC0D6
:102CD000C8F64EC490F04FC491F050C492F0C6C6EE
:102CE0008DF0C7C68EF0C8C68FF0BEECB2F08DC0B6
:102CF000C9F68EC0CAF68FC0CBF64BC490F04CC458
:102D000091F04DC492F0C9C68DF0CAC68EF0CBC604
:102D10008FF0BEECB2F08DC078F68EC079F68FC021
:102D20007AF648C490F049C491F04AC492F078C64B
:102D30008DF079C68EF07AC68FF0BEECB2F08DC001
:102D40007BF68EC07CF68FC07DF645C490F046C4FD
:102D500091F047C492F07BC68DF07CC68EF07DC6A4
:102D60008FF0BEECB2F08DC07EF68EC07FF68FC0C5
:102D700080F642C490F043C491F044C492F07EC601
:102D80008DF07FC68EF080C68FF0BEECB2F08DC0A5
:102D900081F68EC082F68FC083F63FC490F040C4A7
:102DA00091F041C492F081C68DF082C68EF083C648
:102DB0008FF0BEECB2F08DC084F68EC085F68FC069
:102DC00086F63CC490F03DC491F03EC492F084C6B7
:102DD0008DF085C68EF086C68FF0BEECB2F08DC049
:102DE00087F68EC088F68FC089F639C490F03AC451
:102DF00091F03BC492F087C68DF088C68EF089C6EC
:102E00008FF0BEECB2F08DC08AF68EC08BF68FC00C
:102E10008CF636C490F037C491F038C492F08AC66C
:102E20008DF08BC68EF08CC68FF0BEECB2F08DC0EC
:102E30008DF68EC08EF68FC08FF633C490F034C4FA
:102E400091F035C492F08DC68DF08EC68EF08FC68F
:102E50008FF0BEECB2F08DC090F68EC091F68FC0B0
:102E600092F630C490F031C491F032C492F090C622
:102E70008DF091C68EF092C68FF0BEECB2F08DC090
:102E800093F68EC094F68FC095F62DC490F02EC4A4
:102E900091F02FC492F093C68DF094C68EF095C633
:102EA0008FF0BEECB2F08DC096F68EC097F68FC054
:102EB00098F62AC490F02BC491F02CC492F096C6D8
:102EC0008DF097C68EF098C68FF0BEECB2F08DC034
:102ED00099F68EC09AF68FC09BF627C490F028C44E
:102EE00091F029C492F099C68DF09AC68EF09BC6D7
:102EF0008FF0BEECB2F08DC09CF68EC09DF68FC0F8
:102F00009EF624C490F025C491F026C492F09CC68D
:102F10008DF09DC68EF09EC68FF0BEECB2F08DC0D7
:102F20009FF68EC0A0F68FC0A1F621C490F022C4F7
:102F300091F023C492F09FC68DF0A0C68EF0A1C67A
:102F40008FF0BEECB2F08DC0A2F68EC0A3F68FC09B
:102F5000A4F61EC490F01FC491F020C492F0A2C643
:102F60008DF0A3C68EF0A4C68FF0BEECB2F08DC07B
:102F7000A5F68EC0A6F68FC0A7F61BC490F01CC4A1
:102F800091F01DC492F0A5C68DF0A6C68EF0A7C61E
:102F90008FF0BEECB2F08DC0A8F68EC0A9F68FC03F
:102FA000AAF618C490F019C491F01AC492F0A8C6F9
:102FB0008DF0A9C68EF0AAC68FF0BEECB2F08DC01F
:102FC000ABF68EC0ACF68FC0ADF615C490F016C44B
:102FD00091F017C492F0ABC68DF0ACC68EF0ADC6C2
:102FE0008FF0BEECB2F08DC0AEF68EC0AFF68FC0E3
:102FF000B0F612C490F013C491F014C492F0AEC6AF
:103000008DF0AFC68EF0B0C68FF0BEECB2F08DC0C2
:10301000B1F68EC0B2F68FC0B3F60FC490F010C4F4
:1030200091F011C492F0B1C68DF0B2C68EF0B3C665
:103030008FF0BEECB2F08DC0B4F68EC0B5F68FC086
:10304000B6F60CC490F00DC491F00EC492F0B4C664
:103050008DF0B5C68EF0B6C68FF0BEECB2F08DC066
:10306000B7F68EC0B8F68FC0B9F609C490F00AC49E
:1030700091F00BC492F0B7C68DF0B8C68EF0B9C609
:103080008FF0BEECB2F08DC0BAF68EC0BBF68FC02A
:10309000BCF606C490F007C491F008C492F0BAC61A
:1030A0008DF0BBC68EF0BCC68FF0BEECB2F08DC00A
:1030B000BDF68EC0BEF68FC0BFF603C490F004C448
:1030C00091F005C492F0BDC68DF0BEC68EF0BFC6AD
:1030D0008FF0BEECB2F08DC0C0F68EC0C1F68FC0CE
:1030E000C2F6C0C68DF0C1C68EF0C2C68FF000C455
:1030F00090F001C491F002C492F0BEECB2F08DC029
:10310000E4F28EC0E5F28FC0E6F2E4C2A5F0E5C2BB
:10311000A6F0E6C2A7F0000E0001A86FF00E0001B5
:10312000A96F410E0001AA6FAFECC1F0A5C0E4F297
:10313000A6C0E5F2A7C0E6F2090E0001776FC90E3E
:103140000001786F400E0001796FE4C274F0E5C2AF
:1031500075F0E6C276F000ECC1F074C08DF075C079
:103160008EF076C08FF0720E0001906F130E00018A
:10317000916FBF0E0001926FBEECB2F08DC022F5D0
:103180008EC023F58FC024F522C5C1F023C5C2F03F
:1031900024C5C3F010ECCCF0C1C01FF5C2C020F5AF
:1031A000C3C021F51200FD0E0001606FFF0E00018B
:1031B000616F83ECD6F0FB0E0001606FFF0E000123
:1031C000616F83ECD6F0F50E0001B16FFF0E0001C8
:1031D000B26F270E0001B36FFF0E0001B46FA0ECB9
:1031E00086F02C0E6FECD8F0F50E0001B16FFF0EDB
:1031F0000001B26F410E0001B36FFE0E0001B46F0B
:10320000A0EC86F02C0E6FECD8F0F50E0001B16F3B
:10321000FF0E0001B26FF70E0001B36FFD0E00014B
:10322000B46FA0EC86F02C0E6FECD8F0F50E000118
:10323000B16FFF0E0001B26F430E0001B36FFF0EBE
:103240000001B46FA0EC86F02C0E6FECD8F0F50EF8
:103250000001B16FFF0E0001B26F5F0E0001B36F8E
:10326000FD0E0001B46FA0EC86F02C0E6FECD8F0D0
:10327000F50E0001B16FFF0E0001B26F4C0E0001A0
:10328000B36FFE0E0001B46FA0EC86F02C0E6FEC55
:10329000D8F0F50E0001B16FFF0E0001B26F290EDC
:1032A0000001B36FFE0E0001B46FA0EC86F02C0E8F
:1032B0006FECD8F0F50E0001B16FFF0E0001B26F98
:1032C0008B0E0001B36FFD0E0001B46FA0EC86F011
:1032D0002C0E6FECD8F0F50E0001B16FFF0E00015F
:1032E000B26F320E0001B36FFD0E0001B46FA0EC9F
:1032F00086F02C0E6FECD8F0F50E0001B16FFF0ECA
:103300000001B26F410E0001B36FFD0E0001B46FFA
:10331000A0EC86F02C0E6FECD8F0F50E0001B16F2A
:10332000FF0E0001B26FCD0E0001B36FFF0E000162
:10333000B46FA0EC86F02C0E6FECD8F0F50E000107
:10334000B16FFF0E0001B26F230E0001B36FFD0ECF
:103350000001B46FA0EC86F02C0E6FECD8F0F50EE7
:103360000001B16FFF0E0001B26F6E0E0001B36F6E
:10337000FD0E0001B46FA0EC86F02C0E6FECD8F0BF
:10338000F50E0001B16FFF0E0001B26FB10E00012A
:10339000B36FFF0E0001B46FA0EC86F02C0E6FEC43
:1033A000D8F0F50E0001B16FFF0E0001B26FB80E3C
:1033B0000001B36FFF0E0001B46FA0EC86F02C0E7D
:1033C0006FECD8F0F50E0001B16FFF0E0001B26F87
:1033D000AA0E0001B36FFF0E0001B46FA0EC86F0DF
:1033E0002C0E6FECD8F0F50E0001B16FFF0E00014E
:1033F000B26FFF0E0001B36FFE0E0001B46FA0ECC0
:1034000086F02C0E6FECD8F0F50E0001B16FFF0EB8
:103410000001B26F090E0001B36FFF0E0001B46F1F
:10342000A0EC86F02C0E6FECD8F0F50E0001B16F19
:10343000FF0E0001B26FF50E0001B36FFE0E00012A
:10344000B46FA0EC86F02C0E6FECD8F0F50E0001F6
:10345000B16FFF0E0001B26FEB0E0001B36FFF0EF4
:103460000001B46FA0EC86F02C0E6FECD8F0F50ED6
:103470000001B16FFF0E0001B26FE90E0001B36FE2
:10348000FF0E0001B46FA0EC86F02C0E6FECD8F0AC
:10349000F50E0001B16FFF0E0001B26FEE0E0001DC
:1034A000B36FFF0E0001B46FA0EC86F02C0E6FEC32
:1034B000D8F0F50E0001B16FFF0E0001B26FE40EFF
:1034C0000001B36FFF0E0001B46FA0EC86F02C0E6C
:1034D0006FECD8F0F50E0001B16FFF0E0001B26F76
:1034E000520E0001B36FFD0E0001B46FA0EC86F028
:1034F0002C0E6FECD8F0F50E0001B16FFF0E00013D
:10350000B26F500E0001B36FFD0E0001B46FA0EC5E
:1035100086F02C0E6FECD8F0F50E0001B16FFF0EA7
:103520000001B26F1D0E0001B36FFF0E0001B46FFA
:10353000A0EC86F02C0E6FECD8F0F50E0001B16F08
:10354000FF0E0001B26F110E0001B36FFE0E0001FD
:10355000B46FA0EC86F02C0E6FECD8F0F50E0001E5
:10356000B16FFF0E0001B26FE10E0001B36FFE0EEE
:103570000001B46FA0EC86F02C0E6FECD8F0F50EC5
:103580000001B16FFF0E0001B26F040E0001B36FB6
:10359000FE0E0001B46FA0EC86F02C0E6FECD8F09C
:1035A000F50E0001B16FFF0E0001B26F4C0E00016D
:1035B000B36FFF0E0001B46FA0EC86F02C0E6FEC21
:1035C000D8F0F50E0001B16FFF0E0001B26F130EBF
:1035D0000001B36FFD0E0001B46FA0EC86F02C0E5D
:1035E0006FECD8F0F50E0001B16FFF0E0001B26F65
:1035F0007D0E0001B36FFD0E0001B46FA0EC86F0EC
:103600002C0E6FECD8F0F50E0001B16FFF0E00012B
:10361000B26FDA0E0001B36FFF0E0001B46FA0ECC1
:1036200086F02C0E6FECD8F0F50E0001B16FFF0E96
:103630000001B26F820E0001B36FFC0E0001B46F87
:10364000A0EC86F02C0E6FECD8F0F50E0001B16FF7
:10365000FF0E0001B26F1D0E0001B36FFE0E0001E0
:10366000B46FA0EC86F02C0E6FECD8F0F50E0001D4
:10367000B16FFF0E0001B26FEA0E0001B36FFD0ED5
:103680000001B46FA0EC86F02C0E6FECD8F0F50EB4
:103690000001B16FFF0E0001B26FEB0E0001B36FBE
:1036A000FE0E0001B46FA0EC86F02C0E6FECD8F08B
:1036B000F50E0001B16FFF0E0001B26FDD0E0001CB
:1036C000B36FFD0E0001B46FA0EC86F02C0E6FEC12
:1036D000D8F0F50E0001B16FFF0E0001B26F1C0EA5
:1036E0000001B36FFC0E0001B46FA0EC86F02C0E4D
:1036F0006FECD8F0F50E0001B16FFF0E0001B26F54
:10370000620E0001B36FFC0E0001B46FA0EC86F0F6
:103710002C0E6FECD8F0F50E0001B16FFF0E00011A
:10372000B26F4F0E0001B36FFC0E0001B46FA0EC3E
:1037300086F02C0E6FECD8F0F50E0001B16FFF0E85
:103740000001B26F8E0E0001B36FFE0E0001B46F68
:10375000A0EC86F02C0E6FECD8F0F50E0001B16FE6
:10376000FF0E0001B26FB50E0001B36FFD0E000138
:10377000B46FA0EC86F02C0E6FECD8F0F50E0001C3
:10378000B16FFF0E0001B26FCD0E0001B36FFE0EE0
:103790000001B46FA0EC86F02C0E6FECD8F0F50EA3
:1037A0000001B16FFF0E0001B26F770E0001B36F21
:1037B000FF0E0001B46FA0EC86F02C0E6FECD8F079
:1037C000F50E0001B16FFF0E0001B26F030E000194
:1037D000B36FFD0E0001B46FA0EC86F02C0E6FEC01
:1037E000D8F0F50E0001B16FFF0E0001B26F870E29
:1037F0000001B36FFC0E0001B46FA0EC86F02C0E3C
:103800006FECD8F0F50E0001B16FFF0E0001B26F42
:10381000750E0001B36FFC0E0001B46FA0EC86F0D2
:103820002C0E6FECD8F0F50E0001B16FFF0E000109
:10383000B26F990E0001B36FFC0E0001B46FA0ECE3
:1038400086F02C0E6FECD8F0F50E0001B16FFF0E74
:103850000001B26F370E0001B36FFC0E0001B46FB0
:10386000A0EC86F02C0E6FECD8F0F50E0001B16FD5
:10387000FF0E0001B26FAB0E0001B36FFC0E000132
:10388000B46FA0EC86F02C0E6FECD8F0F50E0001B2
:10389000B16FFF0E0001B26FE10E0001B36FFC0EBD
:1038A0000001B46FA0EC86F02C0E6FECD8F0F50E92
:1038B0000001B16FFF0E0001B26FF20E0001B36F95
:1038C000FC0E0001B46FA0EC86F02C0E6FECD8F06B
:1038D000FD0E0001606FFF0E0001616F83ECD6F0FA
:1038E000FB0E0001606FFF0E0001616F83ECD6F0EC
:1038F0001200DBC390F0DCC391F0DDC392F0D8C3BB
:103900008DF0D9C38EF0DAC38FF0BEECB2F08DC06B
:10391000B4F08EC0B5F08FC0B6F0D5C390F0D6C36A
:1039200091F0D7C392F0B4C08DF0B5C08EF0B6C0A0
:103930008FF0BEECB2F08DC0A5F08EC0A6F08FC0A7
:10394000A7F0000E0001A86F400E0001A96F400E05
:103950000001AA6FAFECC1F0A5C0E7F4A6C0E8F47F
:10396000A7C0E9F4700E0001906F040E0001916F82
:10397000C50E0001926FE7C48DF0E8C48EF0E9C473
:103980008FF0BEECB2F08DC074F08EC075F08FC0B9
:1039900076F0BD0E0001776F030E0001786F3F0EC9
:1039A0000001796F00ECC1F074C007F075C008F039
:1039B00076C009F090C490F091C491F092C492F056
:1039C0008DC48DF08EC48EF08FC48FF0BEECB2F03B
:1039D0008DC0B4F08EC0B5F08FC0B6F08AC490F040
:1039E0008BC491F08CC492F0B4C08DF0B5C08EF051
:1039F000B6C08FF0BEECB2F08DC0A5F08EC0A6F0C0
:103A00008FC0A7F0000E0001A86F400E0001A96F43
:103A1000400E0001AA6FAFECC1F0A5C0E4F4A6C04F
:103A2000E5F4A7C0E6F4700E0001906F040E0001EB
:103A3000916FC50E0001926FE4C48DF0E5C48EF065
:103A4000E6C48FF0BEECB2F08DC074F08EC075F09D
:103A50008FC076F0D10E0001776FD50E0001786F20
:103A60003C0E0001796F00ECC1F074C0CDF075C060
:103A7000CEF076C0CFF0A2C490F0A3C491F0A4C45D
:103A800092F09FC48DF0A0C48EF0A1C48FF0BEEC64
:103A9000B2F08DC0B4F08EC0B5F08FC0B6F09CC44B
:103AA00090F09DC491F09EC492F0B4C08DF0B5C06A
:103AB0008EF0B6C08FF0BEECB2F08DC0A5F08EC017
:103AC000A6F08FC0A7F0000E0001A86F400E000105
:103AD000A96F400E0001AA6FAFECC1F0A5C0F9F4C8
:103AE000A6C0FAF4A7C0FBF4700E0001906F040E9C
:103AF0000001916FC50E0001926FF9C48DF0FAC4F8
:103B00008EF0FBC48FF0BEECB2F08DC074F08EC0AE
:103B100075F08FC076F0BD0E0001776F030E0001C7
:103B2000786F3F0E0001796F00ECC1F074C010F0A7
:103B300075C011F076C012F099C490F09AC491F05B
:103B40009BC492F096C48DF097C48EF098C48FF009
:103B5000BEECB2F08DC0B4F08EC0B5F08FC0B6F040
:103B600093C490F094C491F095C492F0B4C08DF0D9
:103B7000B5C08EF0B6C08FF0BEECB2F08DC0A5F02F
:103B80008EC0A6F08FC0A7F0000E0001A86F400EF7
:103B90000001A96F400E0001AA6FAFECC1F0A5C0F3
:103BA000F6F4A6C0F7F4A7C0F8F4700E0001906F09
:103BB000040E0001916FC50E0001926FF6C48DF0E6
:103BC000F7C48EF0F8C48FF0BEECB2F08DC074F084
:103BD0008EC075F08FC076F0D10E0001776FD50ED4
:103BE0000001786F3C0E0001796F00ECC1F074C0E9
:103BF000D6F075C0D7F076C0D8F087C490F088C4EE
:103C000091F089C492F084C48DF085C48EF086C48E
:103C10008FF0BEECB2F08DC0B4F08EC0B5F08FC0A6
:103C2000B6F081C490F082C491F083C492F0B4C025
:103C30008DF0B5C08EF0B6C08FF0BEECB2F08DC086
:103C4000A5F08EC0A6F08FC0A7F0000E0001A86FEF
:103C5000400E0001A96F400E0001AA6FAFECC1F049
:103C6000A5C0DEF4A6C0DFF4A7C0E0F4700E00012A
:103C7000906F040E0001916FC50E0001926FDEC4BB
:103C80008DF0DFC48EF0E0C48FF0BEECB2F08DC0DA
:103C900074F08EC075F08FC076F0BD0E0001776FA6
:103CA000030E0001786F3F0E0001796F00ECC1F048
:103CB00074C001F075C002F076C003F07EC490F0CD
:103CC0007FC491F080C492F07BC48DF07CC48EF0F0
:103CD0007DC48FF0BEECB2F08DC0B4F08EC0B5F0F4
:103CE0008FC0B6F078C490F079C491F07AC492F0A5
:103CF000B4C08DF0B5C08EF0B6C08FF0BEECB2F09F
:103D00008DC0A5F08EC0A6F08FC0A7F0000E0001F8
:103D1000A86F400E0001A96F400E0001AA6FAFEC22
:103D2000C1F0A5C0DBF4A6C0DCF4A7C0DDF4700EC2
:103D30000001906F040E0001916FC50E0001926F9B
:103D4000DBC48DF0DCC48EF0DDC48FF0BEECB2F0CD
:103D50008DC074F08EC075F08FC076F0D10E00016A
:103D6000776FD50E0001786F3C0E0001796F00EC83
:103D7000C1F074C0C4F075C0C5F076C0C6F010C004
:103D800090F011C091F012C092F007C08DF008C001
:103D90008EF009C08FF0BEECB2F08DC0B4F08EC0D2
:103DA000B5F08FC0B6F001C090F002C091F003C032
:103DB00092F0B4C08DF0B5C08EF0B6C08FF0BEECFE
:103DC000B2F08DC0A5F08EC0A6F08FC0A7F0000E97
:103DD0000001A86F400E0001A96F400E0001AA6FFC
:103DE000AFECC1F0A5C000F2A6C001F2A7C002F27C
:103DF000D6C090F0D7C091F0D8C092F0CDC08DF071
:103E0000CEC08EF0CFC08FF0BEECB2F08DC0B4F05B
:103E10008EC0B5F08FC0B6F0C4C090F0C5C091F0B0
:103E2000C6C092F0B4C08DF0B5C08EF0B6C08FF0B1
:103E3000BEECB2F08DC0A5F08EC0A6F08FC0A7F08A
:103E4000000E0001A86F400E0001A96F400E000196
:103E5000AA6FAFECC1F0A5C000F1A6C001F1A7C0E8
:103E600002F112000001896F000189AF3CD100010D
:103E7000896D00018951800A120FD8A0B5D0000EBB
:103E80000001716F030E706F000E0001696F0A0E62
:103E9000686F000E0001636F640E626F000189514C
:103EA0000001606F616B60BF6107A7ECD0F060C07C
:103EB00066F061C067F070ECCCF0090E0001662579
:103EC00000016E6F000E0001672100016F6FB9ECF9
:103ED000D6F0B30E00016E25F66EFB0E00016F21C9
:103EE000F76EF86A000EF8220900F5CF77F00900A6
:103EF000F5CF78F00A00F5CF79F0000E0001696F78
:103F0000640E686F000189510001666F676B66BFC0
:103F1000670770ECCCF0120E0001662500016E6F91
:103F2000000E0001672100016F6F000E0001716F2C
:103F3000030E706FB9ECD6F0B30E00016E25F66E6D
:103F4000FB0E00016F21F76EF86A000EF8220900DF
:103F5000F5CF74F00900F5CF75F00A00F5CF76F0D3
:103F600000ECC1F074C086F075C087F076C088F0B0
:103F700086C074F087C075F088C076F0000E00012E
:103F8000716F030E706F000E0001636F0A0E626F97
:103F9000000189510001606F616B60BF6107A7EC90
:103FA000D0F060C06EF061C06FF0B9ECD6F0B30E27
:103FB00000016E25F66EFB0E00016F21F76EF86AA8
:103FC000000EF8220900F5CF77F00900F5CF78F060
:103FD0000A00F5CF79F000ECC1F074C083F075C031
:103FE00084F076C085F0120000018951800A750FB7
:103FF000D8A063D0000E0001696F0A0E686F00013F
:1040000089510001666F676B66BF670770ECCCF083
:10401000090E0001662500016E6F000E0001672188
:1040200000016F6F000E0001716F030E706FB9EC2D
:10403000D6F0B30E00016E25F66EFB0E00016F2167
:10404000F76EF86A000EF8220900F5CF74F0090047
:10405000F5CF75F00A00F5CF76F0000E0001716F14
:10406000030E706F000E0001636F0A0E626F000195
:1040700089510001606F616B60BF6107A7ECD0F0F0
:1040800060C06EF061C06FF0B9ECD6F0B30E000105
:104090006E25F66EFB0E00016F21F76EF86A000EBA
:1040A000F8220900F5CF77F00900F5CF78F00A0083
:1040B000F5CF79F000ECC1F090D700018951030DE4
:1040C000B30EF324F66EFB0EF420F76EF86A000EC2
:1040D000F8220900F5CF83F00900F5CF84F00A003B
:1040E000F5CF85F0120000018951800A120FD8A087
:1040F000B5D0000E0001716F030E706F000E00014D
:10410000696F0A0E686F000E0001636F640E626FC4
:10411000000189510001606F616B60BF6107A7EC0E
:10412000D0F060C066F061C067F070ECCCF0090EB2
:104130000001662500016E6F000E0001672100017D
:104140006F6FB9ECD6F0DA0E00016E25F66EFB0E3D
:1041500000016F21F76EF86A000EF8220900F5CF12
:1041600077F00900F5CF78F00A00F5CF79F0000E6E
:104170000001696F640E686F000189510001666F6C
:10418000676B66BF670770ECCCF0120E0001662506
:1041900000016E6F000E0001672100016F6F000EBD
:1041A0000001716F030E706FB9ECD6F0DA0E0001EA
:1041B0006E25F66EFB0E00016F21F76EF86A000E99
:1041C000F8220900F5CF74F00900F5CF75F00A0068
:1041D000F5CF76F000ECC1F074C086F075C087F0C2
:1041E00076C088F086C074F087C075F088C076F01D
:1041F000000E0001716F030E706F000E0001636FFF
:104200000A0E626F000189510001606F616B60BF2F
:104210006107A7ECD0F060C06EF061C06FF0B9EC40
:10422000D6F0DA0E00016E25F66EFB0E00016F214E
:10423000F76EF86A000EF8220900F5CF77F0090052
:10424000F5CF78F00A00F5CF79F000ECC1F074C03A
:1042500083F075C084F076C085F0120000018951AA
:10426000800A750FD8A063D0000E0001696F0A0E96
:10427000686F000189510001666F676B66BF670751
:1042800070ECCCF0090E0001662500016E6F000E87
:104290000001672100016F6F000E0001716F030EB6
:1042A000706FB9ECD6F0DA0E00016E25F66EFB0EDB
:1042B00000016F21F76EF86A000EF8220900F5CFB1
:1042C00074F00900F5CF75F00A00F5CF76F0000E16
:1042D0000001716F030E706F000E0001636F0A0E14
:1042E000626F000189510001606F616B60BF6107FF
:1042F000A7ECD0F060C06EF061C06FF0B9ECD6F002
:10430000DA0E00016E25F66EFB0E00016F21F76ECE
:10431000F86A000EF8220900F5CF77F00900F5CF12
:1043200078F00A00F5CF79F000ECC1F090D70001E9
:104330008951030DDA0EF324F66EFB0EF420F76EAE
:10434000F86A000EF8220900F5CF83F00900F5CFD6
:1043500084F00A00F5CF85F0120066C2C0F467C28F
:10436000C1F468C2C2F460C266F261C267F262C29E
:1043700068F25AC260F25BC261F25CC262F254C27D
:104380005AF255C25BF256C25CF24EC254F24FC2B0
:1043900055F250C256F248C24EF249C24FF24AC2DA
:1043A00050F230C248F231C249F232C24AF23CC243
:1043B00030F23DC231F23EC232F236C23CF237C276
:1043C0003DF238C23EF233C236F234C237F235C261
:1043D00038F20A0E0001ED6102D00001ED2B0A0E49
:1043E0000001ED19D8A4C5D066C290F067C291F063
:1043F00068C292F0C0C48DF0C1C48EF0C2C48FF008
:10440000BEECB2F08DC0AAF18EC0ABF18FC0ACF1A2
:1044100060C290F061C291F062C292F0AAC18DF0C8
:10442000ABC18EF0ACC18FF0BEECB2F08DC0ADF17F
:104430008EC0AEF18FC0AFF15AC290F05BC291F066
:104440005CC292F0ADC18DF0AEC18EF0AFC18FF005
:10445000BEECB2F08DC0B0F18EC0B1F18FC0B2F140
:1044600054C290F055C291F056C292F0B0C18DF096
:10447000B1C18EF0B2C18FF0BEECB2F08DC0B3F11D
:104480008EC0B4F18FC0B5F14EC290F04FC291F022
:1044900050C292F0B3C18DF0B4C18EF0B5C18FF0AF
:1044A000BEECB2F08DC0B6F18EC0B7F18FC0B8F1DE
:1044B00048C290F049C291F04AC292F0B6C18DF064
:1044C000B7C18EF0B8C18FF0BEECB2F08DC0B9F1BB
:1044D0008EC0BAF18FC0BBF130C290F031C291F002
:1044E00032C292F0B9C18DF0BAC18EF0BBC18FF06B
:1044F000BEECB2F08DC0BCF18EC0BDF18FC0BEF17C
:104500003CC290F03DC291F03EC292F0BCC18DF031
:10451000BDC18EF0BEC18FF0BEECB2F08DC0BFF158
:104520008EC0C0F18FC0C1F136C290F037C291F099
:1045300038C292F0BFC18DF0C0C18EF0C1C18FF002
:10454000BEECB2F08DC0A5F08EC0A6F08FC0A7F073
:10455000000E0001A86F200E0001A96F410E00019E
:10456000AA6FAFECC1F0A5C00DF0A6C00EF0A7C0B9
:104570000FF069C2C3F46AC2C4F46BC2C5F463C26B
:1045800069F264C26AF265C26BF25DC263F25EC236
:1045900064F25FC265F257C25DF258C25EF259C260
:1045A0005FF251C257F252C258F253C259F24BC293
:1045B00051F24CC252F24DC253F245C24BF246C2C6
:1045C0004CF247C24DF23FC245F240C246F241C2F0
:1045D00047F239C23FF23AC240F23BC241F242C214
:1045E00039F243C23AF244C23BF20A0E0001EE61D4
:1045F00002D00001EE2B0A0E0001EE19D8A4120021
:1046000069C290F06AC291F06BC292F0C3C48DF09F
:10461000C4C48EF0C5C48FF0BEECB2F08DC0AAF158
:104620008EC0ABF18FC0ACF163C290F064C291F068
:1046300065C292F0AAC18DF0ABC18EF0ACC18FF013
:10464000BEECB2F08DC0ADF18EC0AEF18FC0AFF157
:104650005DC290F05EC291F05FC292F0ADC18DF08C
:10466000AEC18EF0AFC18FF0BEECB2F08DC0B0F134
:104670008EC0B1F18FC0B2F157C290F058C291F024
:1046800059C292F0B0C18DF0B1C18EF0B2C18FF0BD
:10469000BEECB2F08DC0B3F18EC0B4F18FC0B5F1F5
:1046A00051C290F052C291F053C292F0B3C18DF05A
:1046B000B4C18EF0B5C18FF0BEECB2F08DC0B6F1D2
:1046C0008EC0B7F18FC0B8F14BC290F04CC291F0E0
:1046D0004DC292F0B6C18DF0B7C18EF0B8C18FF067
:1046E000BEECB2F08DC0B9F18EC0BAF18FC0BBF193
:1046F00045C290F046C291F047C292F0B9C18DF028
:10470000BAC18EF0BBC18FF0BEECB2F08DC0BCF16F
:104710008EC0BDF18FC0BEF13FC290F040C291F09B
:1047200041C292F0BCC18DF0BDC18EF0BEC18FF010
:10473000BEECB2F08DC0BFF18EC0C0F18FC0C1F130
:1047400039C290F03AC291F03BC292F0BFC18DF0F5
:10475000C0C18EF0C1C18FF0BEECB2F08DC0A5F02B
:104760008EC0A6F08FC0A7F0000E0001A86F200E2B
:104770000001A96F410E0001AA6FAFECC1F0A5C006
:10478000C6F4A6C0C7F4A7C0C8F412000001EC51DB
:10479000D8B41200000E0001EC6FB6980101305140
:1047A0000101325D0101315101013359D8B035D0D9
:1047B00032C1B4F033C1B5F00001B41FB51FB44B22
:1047C000B52B010130510001B42701013151000125
:1047D000B523010E0001B4250201F96F000E00019E
:1047E000B5210201FA6FA0C2B4F0A1C2B5F0000178
:1047F000B41FB51FB44BB52B010136510001B425D0
:1048000001012C6F010137510001B52101012D6F0C
:10481000000E0501C76F000E3ED032C1B4F033C1A7
:10482000B5F00001B41FB51FB44BB52B01013051D9
:104830000001B427010131510001B523010E00012F
:10484000B4250201F96F000E0001B5210201FA6FD3
:10485000A0C2B4F0A1C2B5F00001B41FB51FB44BA3
:10486000B52B010136510001B42501012C6F010166
:1048700037510001B52101012D6FFF0E01012C25DB
:1048800001012C6FFF0E01012D2101012D6F000E82
:104890000501C76F010EC66FF9C268F0FAC269F070
:1048A000CEECD7F068C074F069C075F06AC076F0DD
:1048B000380E0001776F860E0001786F360E00010A
:1048C000796F00ECC1F074C0AEF475C0AFF476C07F
:1048D000B0F4250E0001776F860E0001786F3E0E52
:1048E0000001796F2CC168F02DC169F0CEECD7F0D2
:1048F00068C074F069C075F06AC076F000ECC1F071
:1049000074C08DF075C08EF076C08FF0AEC490F09C
:10491000AFC491F0B0C492F0BEECB2F08DC0EDF433
:104920008EC0EEF48FC0EFF4000E0001A56F800E74
:104930000001A66F3F0E0001A76FEDC4A8F0EEC402
:10494000A9F0EFC4AAF0AFECC1F0A5C0EAF4A6C08C
:10495000EBF4A7C0ECF4020E0001EB6102D0000101
:10496000EB2B020E0001EB19D8A49DD0000E000124
:10497000776F700E0001786F420E0001796FEAC404
:1049800074F0EBC475F0ECC476F000ECC1F074C0C8
:10499000A5F075C0A6F076C0A7F0000E0001A86FC4
:1049A000800E0001A96F3F0E0001AA6FAFECC1F0AD
:1049B000A5C0BAF4A6C0BBF4A7C0BCF415C118F1D9
:1049C00016C119F117C11AF1BAC415F1BBC416F119
:1049D000BCC417F10001F005D8B405D0020E0001E7
:1049E000F019D8A451D0000E0001906F200E0001E4
:1049F000916F410E0001926F18C18DF019C18EF0B8
:104A00001AC18FF0BEECB2F08DC099F08EC09AF052
:104A10008FC09BF015C19CF016C19DF017C19EF090
:104A20004BECCBF00001D8A022D015C199F016C1F3
:104A30009AF017C19BF0000E0001906F200E00014C
:104A4000916FC10E0001926F18C18DF019C18EF0E7
:104A50001AC18FF0BEECB2F08DC09CF08EC09DF0FC
:104A60008FC09EF04BECCBF00001D8B016D018C12F
:104A70000AF019C10BF01AC10CF018C115F119C1D7
:104A800016F11AC117F10FD00001F051D8B405D0BA
:104A9000030E0001F019D8A406D015C10AF016C102
:104AA0000BF017C10CF00001F005D8A40CD00201E6
:104AB000955112E1020E0201945DD8B00DD00201B1
:104AC000944B952B09D00001F005D8B405D0000E09
:104AD0000201956F000E946F020E020194190201FB
:104AE0009511D8A405D0000E0201976F010E966FA4
:104AF000000E0301F46F000EF36F2CC1D4F52DC12D
:104B0000D5F5000E0201FA6F000EF96F000E0101DB
:104B10002D6F000E2C6F000E0401EA6F000E0401D1
:104B2000EB6F000E0401EC6F000E0401ED6F000E40
:104B30000401EE6F000E0401EF6FB688B798120003
:104B4000C2D1020E0101C76F000E0101126F000EEB
:104B50000101136F000E0101146F000E01010C6FB3
:104B6000000E01010D6F000E01010E6F000E216E8F
:104B7000450E216401D056D0010E09ECD6F060C07C
:104B80009CF261C09DF2090E09ECD6F060C09AF269
:104B900061C09BF212C199F013C19AF014C19BF04D
:104BA0009CC268F09DC269F0CEECD7F068C09CF062
:104BB00069C09DF06AC09EF04BECCBF00001D8B00C
:104BC0000CD09CC268F09DC269F0CEECD7F068C0F2
:104BD00012F169C013F16AC014F10CC199F00DC152
:104BE0009AF00EC19BF09AC268F09BC269F0CEECBD
:104BF000D7F068C09CF069C09DF06AC09EF04BEC95
:104C0000CBF00001D8B00CD09AC268F09BC269F01A
:104C1000CEECD7F068C00CF169C00DF16AC00EF19E
:104C2000212AA6D7D8C3DBF3D9C3DCF3DAC3DDF37B
:104C3000D5C3D8F3D6C3D9F3D7C3DAF312C1D5F3AA
:104C400013C1D6F314C1D7F38DC490F48EC491F47C
:104C50008FC492F48AC48DF48BC48EF48CC48FF408
:104C60000CC18AF40DC18BF40EC18CF41200030E3A
:104C70000101C76F000E0201756F000E0201766F11
:104C8000000E0201776F000E02016F6F000E02012D
:104C9000706F000E0201716F000E216E450E2164CF
:104CA00001D056D0020E09ECD6F060C0B4F261C05B
:104CB000B5F20A0E09ECD6F060C0B2F261C0B3F2F0
:104CC00075C299F076C29AF077C29BF0B4C268F0D0
:104CD000B5C269F0CEECD7F068C09CF069C09DF019
:104CE0006AC09EF04BECCBF00001D8B00CD0B4C23F
:104CF00068F0B5C269F0CEECD7F068C075F269C053
:104D000076F26AC077F26FC299F070C29AF071C2FF
:104D10009BF0B2C268F0B3C269F0CEECD7F068C0C5
:104D20009CF069C09DF06AC09EF04BECCBF0000196
:104D3000D8B00CD0B2C268F0B3C269F0CEECD7F0F4
:104D400068C06FF269C070F26AC071F2212AA6D7FA
:104D50009FC4A2F4A0C4A3F4A1C4A4F49CC49FF46F
:104D60009DC4A0F49EC4A1F475C29CF476C29DF4C7
:104D700077C29EF496C499F497C49AF498C49BF4AD
:104D800093C496F494C497F495C498F46FC293F4C2
:104D900070C294F471C295F41200010E0101C76F44
:104DA000000E0201096F000E02010A6F000E0201DF
:104DB0000B6F000E0201066F000E0201076F000E5E
:104DC0000201086F000E216E450E216401D056D0FD
:104DD000030E09ECD6F060C082F261C083F20B0EC4
:104DE00009ECD6F060C080F261C081F209C299F08E
:104DF0000AC29AF00BC29BF082C268F083C269F0CB
:104E0000CEECD7F068C09CF069C09DF06AC09EF0FF
:104E10004BECCBF00001D8B00CD082C268F083C25A
:104E200069F0CEECD7F068C009F269C00AF26AC036
:104E30000BF206C299F007C29AF008C29BF080C23A
:104E400068F081C269F0CEECD7F068C09CF069C010
:104E50009DF06AC09EF04BECCBF00001D8B00CD0B6
:104E600080C268F081C269F0CEECD7F068C006F26B
:104E700069C007F26AC008F2212AA6D784C487F461
:104E800085C488F486C489F481C484F482C485F41A
:104E900083C486F409C281F40AC282F40BC283F48B
:104EA0007BC47EF47CC47FF47DC480F478C47BF43E
:104EB00079C47CF47AC47DF406C278F407C279F42C
:104EC00008C27AF412000101C751010AD8B439D6D8
:104ED000030AD8B4CCD6010AD8A412005ED7B69A79
:104EE000010122510101245D0101235101012559D4
:104EF000D8B02FD024C1B4F025C1B5F00001B41F43
:104F0000B51FB44BB52B010122510001B42701019B
:104F100023510001B523010E0001B4250201F36FF6
:104F2000000E0001B5210201F46F9EC2B4F09FC2D1
:104F3000B5F00001B41FB51FB44BB52B01013451BE
:104F40000001B4250201866F010135510001B52130
:104F500038D024C1B4F025C1B5F00001B41FB51F8D
:104F6000B44BB52B010122510001B427010123519B
:104F70000001B523010E0001B4250201F36F000EFC
:104F80000001B5210201F46F9EC2B4F09FC2B5F0DA
:104F90000001B41FB51FB44BB52B01013451000102
:104FA000B4250201866F010135510001B5210201CE
:104FB000876FFF0E020186250201866FFF0E020138
:104FC00087210201876FF3C268F0F4C269F0CEEC6A
:104FD000D7F068C074F069C075F06AC076F0380E1A
:104FE0000001776F860E0001786F360E0001796F31
:104FF00000ECC1F074C0A5F475C0A6F476C0A7F4A7
:10500000250E0001776F860E0001786F3E0E0001BD
:10501000796F86C268F087C269F0CEECD7F068C0BD
:1050200074F069C075F06AC076F000ECC1F074C02D
:105030008DF075C08EF076C08FF0A5C490F0A6C438
:1050400091F0A7C492F0BEECB2F08DC0E7F28EC032
:10505000E8F28FC0E9F2E7C2A5F0E8C2A6F0E9C223
:10506000A7F0000E0001A86F800E0001A96F400E8E
:105070000001AA6FAFECC1F0A5C0E7F2A6C0E8F24C
:10508000A7C0E9F2000E0001A56F800E0001A66F17
:105090003F0E0001A76FE7C2A8F0E8C2A9F0E9C27D
:1050A000AAF0AFECC1F0A5C0E1F4A6C0E2F4A7C03D
:1050B000E3F4020E0001E26102D00001E22B020ED5
:1050C0000001E219D8A42ED006C109F107C10AF1E6
:1050D00008C10BF1000E0001776F700E0001786FB0
:1050E000420E0001796FE1C474F0E2C475F0E3C4CC
:1050F00076F000ECC1F074C0A5F075C0A6F076C0E3
:10510000A7F0000E0001A86F000E0001A96F400E6D
:105110000001AA6FAFECC1F0A5C006F1A6C007F16F
:10512000A7C008F1020E0001F019D8A451D0CD0E8D
:105130000001776F4C0E0001786F3F0E0001796F10
:1051400006C174F007C175F008C176F000ECC1F03B
:1051500074C099F075C09AF076C09BF009C19CF0BC
:105160000AC19DF00BC19EF04BECCBF00001D8B012
:1051700022D009C199F00AC19AF00BC19BF09A0E96
:105180000001776F990E0001786F3F0E0001796F73
:1051900006C174F007C175F008C176F000ECC1F0EB
:1051A00074C09CF075C09DF076C09EF04BECCBF0C7
:1051B0000001D8A00DD009C104F00AC105F00BC14F
:1051C00006F009C106F10AC107F10BC108F106D0CA
:1051D00006C104F007C105F008C106F004C08AF05A
:1051E00005C08BF006C08CF055ECC2F08AC088F286
